{
  "_format": "hh-sol-artifact-1",
  "contractName": "Anthropolis",
  "sourceName": "contracts/Anthropolis.sol",
  "abi": [
    {
      "inputs": [],
      "stateMutability": "nonpayable",
      "type": "constructor"
    },
    {
      "anonymous": false,
      "inputs": [
        {
          "indexed": true,
          "internalType": "uint256",
          "name": "_id",
          "type": "uint256"
        },
        {
          "indexed": true,
          "internalType": "address",
          "name": "_address",
          "type": "address"
        },
        {
          "indexed": false,
          "internalType": "uint256",
          "name": "_amount",
          "type": "uint256"
        },
        {
          "indexed": false,
          "internalType": "string",
          "name": "_name",
          "type": "string"
        }
      ],
      "name": "EnterRaffle",
      "type": "event"
    },
    {
      "anonymous": false,
      "inputs": [
        {
          "indexed": true,
          "internalType": "address",
          "name": "previousOwner",
          "type": "address"
        },
        {
          "indexed": true,
          "internalType": "address",
          "name": "newOwner",
          "type": "address"
        }
      ],
      "name": "OwnershipTransferred",
      "type": "event"
    },
    {
      "anonymous": false,
      "inputs": [
        {
          "indexed": true,
          "internalType": "uint256",
          "name": "_id",
          "type": "uint256"
        },
        {
          "indexed": true,
          "internalType": "address",
          "name": "_address",
          "type": "address"
        },
        {
          "indexed": false,
          "internalType": "string",
          "name": "_name",
          "type": "string"
        }
      ],
      "name": "PurchaseWL",
      "type": "event"
    },
    {
      "inputs": [
        {
          "internalType": "uint256",
          "name": "_price",
          "type": "uint256"
        },
        {
          "internalType": "bool",
          "name": "_capped",
          "type": "bool"
        }
      ],
      "name": "addRaffle",
      "outputs": [],
      "stateMutability": "nonpayable",
      "type": "function"
    },
    {
      "inputs": [
        {
          "internalType": "uint256",
          "name": "_amount",
          "type": "uint256"
        },
        {
          "internalType": "uint256",
          "name": "_price",
          "type": "uint256"
        }
      ],
      "name": "addWhitelist",
      "outputs": [],
      "stateMutability": "nonpayable",
      "type": "function"
    },
    {
      "inputs": [
        {
          "internalType": "uint256",
          "name": "_id",
          "type": "uint256"
        },
        {
          "internalType": "uint256",
          "name": "_price",
          "type": "uint256"
        },
        {
          "internalType": "bool",
          "name": "_capped",
          "type": "bool"
        },
        {
          "internalType": "uint256",
          "name": "_timestamp",
          "type": "uint256"
        }
      ],
      "name": "editRaffle",
      "outputs": [],
      "stateMutability": "nonpayable",
      "type": "function"
    },
    {
      "inputs": [
        {
          "internalType": "uint256",
          "name": "_id",
          "type": "uint256"
        },
        {
          "internalType": "bool",
          "name": "_capped",
          "type": "bool"
        }
      ],
      "name": "editRaffleAmount",
      "outputs": [],
      "stateMutability": "nonpayable",
      "type": "function"
    },
    {
      "inputs": [
        {
          "internalType": "uint256",
          "name": "_id",
          "type": "uint256"
        },
        {
          "internalType": "uint256",
          "name": "_timestamp",
          "type": "uint256"
        }
      ],
      "name": "editRaffleEnd",
      "outputs": [],
      "stateMutability": "nonpayable",
      "type": "function"
    },
    {
      "inputs": [
        {
          "internalType": "uint256",
          "name": "_id",
          "type": "uint256"
        },
        {
          "internalType": "uint256",
          "name": "_price",
          "type": "uint256"
        }
      ],
      "name": "editRafflePrice",
      "outputs": [],
      "stateMutability": "nonpayable",
      "type": "function"
    },
    {
      "inputs": [
        {
          "internalType": "uint256",
          "name": "_id",
          "type": "uint256"
        },
        {
          "internalType": "uint256",
          "name": "_amount",
          "type": "uint256"
        }
      ],
      "name": "editWLAmount",
      "outputs": [],
      "stateMutability": "nonpayable",
      "type": "function"
    },
    {
      "inputs": [
        {
          "internalType": "uint256",
          "name": "_id",
          "type": "uint256"
        },
        {
          "internalType": "uint256",
          "name": "_price",
          "type": "uint256"
        }
      ],
      "name": "editWLPrice",
      "outputs": [],
      "stateMutability": "nonpayable",
      "type": "function"
    },
    {
      "inputs": [
        {
          "internalType": "uint256",
          "name": "_id",
          "type": "uint256"
        },
        {
          "internalType": "uint256",
          "name": "_timestamp",
          "type": "uint256"
        }
      ],
      "name": "editWLTimestamp",
      "outputs": [],
      "stateMutability": "nonpayable",
      "type": "function"
    },
    {
      "inputs": [
        {
          "internalType": "uint256",
          "name": "_id",
          "type": "uint256"
        },
        {
          "internalType": "uint256",
          "name": "_amount",
          "type": "uint256"
        },
        {
          "internalType": "uint256",
          "name": "_price",
          "type": "uint256"
        },
        {
          "internalType": "uint256",
          "name": "_timestamp",
          "type": "uint256"
        }
      ],
      "name": "editWhitelist",
      "outputs": [],
      "stateMutability": "nonpayable",
      "type": "function"
    },
    {
      "inputs": [
        {
          "internalType": "uint256",
          "name": "_id",
          "type": "uint256"
        },
        {
          "internalType": "uint256",
          "name": "_amount",
          "type": "uint256"
        },
        {
          "internalType": "string",
          "name": "_name",
          "type": "string"
        }
      ],
      "name": "enterRaffle",
      "outputs": [],
      "stateMutability": "nonpayable",
      "type": "function"
    },
    {
      "inputs": [],
      "name": "faithAddress",
      "outputs": [
        {
          "internalType": "address",
          "name": "",
          "type": "address"
        }
      ],
      "stateMutability": "view",
      "type": "function"
    },
    {
      "inputs": [
        {
          "internalType": "uint256",
          "name": "_id",
          "type": "uint256"
        }
      ],
      "name": "getRaffle",
      "outputs": [
        {
          "components": [
            {
              "internalType": "uint256",
              "name": "price",
              "type": "uint256"
            },
            {
              "internalType": "uint256",
              "name": "endTime",
              "type": "uint256"
            },
            {
              "internalType": "bool",
              "name": "capped",
              "type": "bool"
            }
          ],
          "internalType": "struct Anthropolis.Raffle",
          "name": "",
          "type": "tuple"
        }
      ],
      "stateMutability": "view",
      "type": "function"
    },
    {
      "inputs": [
        {
          "internalType": "uint256",
          "name": "_id",
          "type": "uint256"
        }
      ],
      "name": "getWhitelist",
      "outputs": [
        {
          "components": [
            {
              "internalType": "uint256",
              "name": "price",
              "type": "uint256"
            },
            {
              "internalType": "uint256",
              "name": "amount",
              "type": "uint256"
            },
            {
              "internalType": "uint256",
              "name": "timestamp",
              "type": "uint256"
            }
          ],
          "internalType": "struct Anthropolis.Whitelist",
          "name": "",
          "type": "tuple"
        }
      ],
      "stateMutability": "view",
      "type": "function"
    },
    {
      "inputs": [
        {
          "internalType": "uint256",
          "name": "_id",
          "type": "uint256"
        },
        {
          "internalType": "address",
          "name": "_address",
          "type": "address"
        }
      ],
      "name": "hasPurchasedRaffle",
      "outputs": [
        {
          "internalType": "bool",
          "name": "",
          "type": "bool"
        }
      ],
      "stateMutability": "view",
      "type": "function"
    },
    {
      "inputs": [
        {
          "internalType": "uint256",
          "name": "_id",
          "type": "uint256"
        },
        {
          "internalType": "address",
          "name": "_address",
          "type": "address"
        }
      ],
      "name": "hasPurchasedWL",
      "outputs": [
        {
          "internalType": "bool",
          "name": "",
          "type": "bool"
        }
      ],
      "stateMutability": "view",
      "type": "function"
    },
    {
      "inputs": [
        {
          "internalType": "uint256",
          "name": "_id",
          "type": "uint256"
        }
      ],
      "name": "isCappedRaffle",
      "outputs": [
        {
          "internalType": "bool",
          "name": "",
          "type": "bool"
        }
      ],
      "stateMutability": "view",
      "type": "function"
    },
    {
      "inputs": [],
      "name": "owner",
      "outputs": [
        {
          "internalType": "address",
          "name": "",
          "type": "address"
        }
      ],
      "stateMutability": "view",
      "type": "function"
    },
    {
      "inputs": [
        {
          "internalType": "uint256",
          "name": "_id",
          "type": "uint256"
        },
        {
          "internalType": "string",
          "name": "_name",
          "type": "string"
        }
      ],
      "name": "purchaseWhitelist",
      "outputs": [],
      "stateMutability": "nonpayable",
      "type": "function"
    },
    {
      "inputs": [],
      "name": "raffleCounter",
      "outputs": [
        {
          "internalType": "uint256",
          "name": "",
          "type": "uint256"
        }
      ],
      "stateMutability": "view",
      "type": "function"
    },
    {
      "inputs": [],
      "name": "raffleTimer",
      "outputs": [
        {
          "internalType": "uint256",
          "name": "",
          "type": "uint256"
        }
      ],
      "stateMutability": "view",
      "type": "function"
    },
    {
      "inputs": [],
      "name": "renounceOwnership",
      "outputs": [],
      "stateMutability": "nonpayable",
      "type": "function"
    },
    {
      "inputs": [
        {
          "internalType": "address",
          "name": "_faithAddress",
          "type": "address"
        }
      ],
      "name": "setFaithAddress",
      "outputs": [],
      "stateMutability": "nonpayable",
      "type": "function"
    },
    {
      "inputs": [
        {
          "internalType": "uint256",
          "name": "_time",
          "type": "uint256"
        }
      ],
      "name": "setRaffleTimer",
      "outputs": [],
      "stateMutability": "nonpayable",
      "type": "function"
    },
    {
      "inputs": [
        {
          "internalType": "uint256",
          "name": "_time",
          "type": "uint256"
        }
      ],
      "name": "setWhitelistTimer",
      "outputs": [],
      "stateMutability": "nonpayable",
      "type": "function"
    },
    {
      "inputs": [],
      "name": "skipRaffleIndex",
      "outputs": [],
      "stateMutability": "nonpayable",
      "type": "function"
    },
    {
      "inputs": [
        {
          "internalType": "address",
          "name": "newOwner",
          "type": "address"
        }
      ],
      "name": "transferOwnership",
      "outputs": [],
      "stateMutability": "nonpayable",
      "type": "function"
    },
    {
      "inputs": [],
      "name": "whitelistCounter",
      "outputs": [
        {
          "internalType": "uint256",
          "name": "",
          "type": "uint256"
        }
      ],
      "stateMutability": "view",
      "type": "function"
    },
    {
      "inputs": [],
      "name": "whitelistTimer",
      "outputs": [
        {
          "internalType": "uint256",
          "name": "",
          "type": "uint256"
        }
      ],
      "stateMutability": "view",
      "type": "function"
    }
  ],
  "bytecode": "0x60806040523480156200001157600080fd5b506200003262000026620000a860201b60201c565b620000b060201b60201c565b731fa0f4962f6cee2bf49619cb5ced57d48caa2e4f600560006101000a81548173ffffffffffffffffffffffffffffffffffffffff021916908373ffffffffffffffffffffffffffffffffffffffff16021790555060216001819055506201518060038190555060035460048190555062000174565b600033905090565b60008060009054906101000a900473ffffffffffffffffffffffffffffffffffffffff169050816000806101000a81548173ffffffffffffffffffffffffffffffffffffffff021916908373ffffffffffffffffffffffffffffffffffffffff1602179055508173ffffffffffffffffffffffffffffffffffffffff168173ffffffffffffffffffffffffffffffffffffffff167f8be0079c531659141344cd1fd0a4f28419497f9722a3daafe3b4186f6b6457e060405160405180910390a35050565b61252e80620001846000396000f3fe608060405234801561001057600080fd5b50600436106101cf5760003560e01c8063715018a611610104578063be58bc1d116100a2578063d6916bbe11610071578063d6916bbe146104c8578063d7a20243146104e4578063e4dafec914610500578063f2fde38b14610530576101cf565b8063be58bc1d14610456578063bf72d77e14610472578063c2f306a51461048e578063c60a7c6c146104ac576101cf565b806390478db0116100de57806390478db0146103ce57806396db752a146103ec5780639d2904241461041c578063a1637b071461043a576101cf565b8063715018a61461039c5780638da5cb5b146103a65780638dd84b29146103c4576101cf565b806335eaa83511610171578063562d882c1161014b578063562d882c146103185780635e211a7e146103345780635eebffe5146103505780636ed333ea14610380576101cf565b806335eaa835146102ae57806337164b48146102ca57806348a6d88d146102fa576101cf565b80630fb2dcdc116101ad5780630fb2dcdc1461023c578063152b79a1146102585780631c80d15d1461027457806326f27e6d14610290576101cf565b806301e6839e146101d457806306986ea4146101f05780630e951f5c14610220575b600080fd5b6101ee60048036038101906101e991906119ce565b61054c565b005b61020a60048036038101906102059190611a59565b6105d2565b6040516102179190611ab4565b60405180910390f35b61023a60048036038101906102359190611acf565b61063a565b005b61025660048036038101906102519190611c55565b61073f565b005b610272600480360381019061026d9190611cf0565b6109ce565b005b61028e60048036038101906102899190611d30565b610a7c565b005b610298610d54565b6040516102a59190611d9b565b60405180910390f35b6102c860048036038101906102c39190611acf565b610d5a565b005b6102e460048036038101906102df9190611a59565b610e08565b6040516102f19190611ab4565b60405180910390f35b610302610e70565b60405161030f9190611dc5565b60405180910390f35b610332600480360381019061032d9190611acf565b610e96565b005b61034e60048036038101906103499190611cf0565b610f44565b005b61036a600480360381019061036591906119ce565b611061565b6040516103779190611ab4565b60405180910390f35b61039a60048036038101906103959190611de0565b61108e565b005b6103a461114e565b005b6103ae6111d6565b6040516103bb9190611dc5565b60405180910390f35b6103cc6111ff565b005b6103d661128d565b6040516103e39190611d9b565b60405180910390f35b610406600480360381019061040191906119ce565b611293565b6040516104139190611e5e565b60405180910390f35b6104246112de565b6040516104319190611d9b565b60405180910390f35b610454600480360381019061044f9190611e79565b6112e4565b005b610470600480360381019061046b9190611acf565b6113ca565b005b61048c600480360381019061048791906119ce565b611465565b005b6104966114eb565b6040516104a39190611d9b565b60405180910390f35b6104c660048036038101906104c19190611acf565b6114f1565b005b6104e260048036038101906104dd9190611ee0565b61158c565b005b6104fe60048036038101906104f99190611acf565b611685565b005b61051a600480360381019061051591906119ce565b611720565b6040516105279190611f98565b60405180910390f35b61054a60048036038101906105459190611de0565b61177c565b005b610554611874565b73ffffffffffffffffffffffffffffffffffffffff166105726111d6565b73ffffffffffffffffffffffffffffffffffffffff16146105c8576040517f08c379a00000000000000000000000000000000000000000000000000000000081526004016105bf90612010565b60405180910390fd5b8060038190555050565b60006008600084815260200190815260200160002060008373ffffffffffffffffffffffffffffffffffffffff1673ffffffffffffffffffffffffffffffffffffffff16815260200190815260200160002060009054906101000a900460ff16905092915050565b610642611874565b73ffffffffffffffffffffffffffffffffffffffff166106606111d6565b73ffffffffffffffffffffffffffffffffffffffff16146106b6576040517f08c379a00000000000000000000000000000000000000000000000000000000081526004016106ad90612010565b60405180910390fd5b6040518060600160405280670de0b6b3a7640000836106d5919061205f565b8152602001838152602001600354426106ee91906120b9565b81525060066000600160008154809291906107089061210f565b9190505581526020019081526020016000206000820151816000015560208201518160010155604082015181600201559050505050565b60076000848152602001908152602001600020600101544210610797576040517f08c379a000000000000000000000000000000000000000000000000000000000815260040161078e906121a4565b60405180910390fd5b6007600084815260200190815260200160002060020160009054906101000a900460ff16156108c8576009600084815260200190815260200160002060003373ffffffffffffffffffffffffffffffffffffffff1673ffffffffffffffffffffffffffffffffffffffff16815260200190815260200160002060009054906101000a900460ff161561085e576040517f08c379a000000000000000000000000000000000000000000000000000000000815260040161085590612210565b60405180910390fd5b60016009600085815260200190815260200160002060003373ffffffffffffffffffffffffffffffffffffffff1673ffffffffffffffffffffffffffffffffffffffff16815260200190815260200160002060006101000a81548160ff0219169083151502179055505b600560009054906101000a900473ffffffffffffffffffffffffffffffffffffffff1673ffffffffffffffffffffffffffffffffffffffff166379cc679033846007600088815260200190815260200160002060000154610929919061205f565b6040518363ffffffff1660e01b8152600401610946929190612230565b600060405180830381600087803b15801561096057600080fd5b505af1158015610974573d6000803e3d6000fd5b505050503373ffffffffffffffffffffffffffffffffffffffff16837fd831ea0b30b74023d5b3430d6d860d96a647bf4b48e31c30e6e5b405c15b59e084846040516109c19291906122d0565b60405180910390a3505050565b6109d6611874565b73ffffffffffffffffffffffffffffffffffffffff166109f46111d6565b73ffffffffffffffffffffffffffffffffffffffff1614610a4a576040517f08c379a0000000000000000000000000000000000000000000000000000000008152600401610a4190612010565b60405180910390fd5b806007600084815260200190815260200160002060020160006101000a81548160ff0219169083151502179055505050565b60066000838152602001908152602001600020600201544211610ad4576040517f08c379a0000000000000000000000000000000000000000000000000000000008152600401610acb9061234c565b60405180910390fd5b600060066000848152602001908152602001600020600101541415610b2e576040517f08c379a0000000000000000000000000000000000000000000000000000000008152600401610b25906123b8565b60405180910390fd5b6008600083815260200190815260200160002060003373ffffffffffffffffffffffffffffffffffffffff1673ffffffffffffffffffffffffffffffffffffffff16815260200190815260200160002060009054906101000a900460ff1615610bcc576040517f08c379a0000000000000000000000000000000000000000000000000000000008152600401610bc390612424565b60405180910390fd5b60066000838152602001908152602001600020600101600081548092919060019003919050555060016008600084815260200190815260200160002060003373ffffffffffffffffffffffffffffffffffffffff1673ffffffffffffffffffffffffffffffffffffffff16815260200190815260200160002060006101000a81548160ff021916908315150217905550600560009054906101000a900473ffffffffffffffffffffffffffffffffffffffff1673ffffffffffffffffffffffffffffffffffffffff166379cc67903360066000868152602001908152602001600020600001546040518363ffffffff1660e01b8152600401610ccf929190612230565b600060405180830381600087803b158015610ce957600080fd5b505af1158015610cfd573d6000803e3d6000fd5b505050503373ffffffffffffffffffffffffffffffffffffffff16827f69993a2a8ddaee725ca9529b05f06a27798844cc44b26dd39106e6a054934dd583604051610d489190612444565b60405180910390a35050565b60015481565b610d62611874565b73ffffffffffffffffffffffffffffffffffffffff16610d806111d6565b73ffffffffffffffffffffffffffffffffffffffff1614610dd6576040517f08c379a0000000000000000000000000000000000000000000000000000000008152600401610dcd90612010565b60405180910390fd5b670de0b6b3a764000081610dea919061205f565b60066000848152602001908152602001600020600001819055505050565b60006009600084815260200190815260200160002060008373ffffffffffffffffffffffffffffffffffffffff1673ffffffffffffffffffffffffffffffffffffffff16815260200190815260200160002060009054906101000a900460ff16905092915050565b600560009054906101000a900473ffffffffffffffffffffffffffffffffffffffff1681565b610e9e611874565b73ffffffffffffffffffffffffffffffffffffffff16610ebc6111d6565b73ffffffffffffffffffffffffffffffffffffffff1614610f12576040517f08c379a0000000000000000000000000000000000000000000000000000000008152600401610f0990612010565b60405180910390fd5b670de0b6b3a764000081610f26919061205f565b60076000848152602001908152602001600020600001819055505050565b610f4c611874565b73ffffffffffffffffffffffffffffffffffffffff16610f6a6111d6565b73ffffffffffffffffffffffffffffffffffffffff1614610fc0576040517f08c379a0000000000000000000000000000000000000000000000000000000008152600401610fb790612010565b60405180910390fd5b6040518060600160405280670de0b6b3a764000084610fdf919061205f565b815260200160045442610ff291906120b9565b815260200182151581525060076000600260008154809291906110149061210f565b919050558152602001908152602001600020600082015181600001556020820151816001015560408201518160020160006101000a81548160ff0219169083151502179055509050505050565b60006007600083815260200190815260200160002060020160009054906101000a900460ff169050919050565b611096611874565b73ffffffffffffffffffffffffffffffffffffffff166110b46111d6565b73ffffffffffffffffffffffffffffffffffffffff161461110a576040517f08c379a000000000000000000000000000000000000000000000000000000000815260040161110190612010565b60405180910390fd5b80600560006101000a81548173ffffffffffffffffffffffffffffffffffffffff021916908373ffffffffffffffffffffffffffffffffffffffff16021790555050565b611156611874565b73ffffffffffffffffffffffffffffffffffffffff166111746111d6565b73ffffffffffffffffffffffffffffffffffffffff16146111ca576040517f08c379a00000000000000000000000000000000000000000000000000000000081526004016111c190612010565b60405180910390fd5b6111d4600061187c565b565b60008060009054906101000a900473ffffffffffffffffffffffffffffffffffffffff16905090565b611207611874565b73ffffffffffffffffffffffffffffffffffffffff166112256111d6565b73ffffffffffffffffffffffffffffffffffffffff161461127b576040517f08c379a000000000000000000000000000000000000000000000000000000000815260040161127290612010565b60405180910390fd5b60026000815460010191905081905550565b60045481565b61129b611940565b6006600083815260200190815260200160002060405180606001604052908160008201548152602001600182015481526020016002820154815250509050919050565b60035481565b6112ec611874565b73ffffffffffffffffffffffffffffffffffffffff1661130a6111d6565b73ffffffffffffffffffffffffffffffffffffffff1614611360576040517f08c379a000000000000000000000000000000000000000000000000000000000815260040161135790612010565b60405180910390fd5b826006600086815260200190815260200160002060010181905550670de0b6b3a76400008261138f919061205f565b600660008681526020019081526020016000206000018190555080600660008681526020019081526020016000206002018190555050505050565b6113d2611874565b73ffffffffffffffffffffffffffffffffffffffff166113f06111d6565b73ffffffffffffffffffffffffffffffffffffffff1614611446576040517f08c379a000000000000000000000000000000000000000000000000000000000815260040161143d90612010565b60405180910390fd5b8060066000848152602001908152602001600020600201819055505050565b61146d611874565b73ffffffffffffffffffffffffffffffffffffffff1661148b6111d6565b73ffffffffffffffffffffffffffffffffffffffff16146114e1576040517f08c379a00000000000000000000000000000000000000000000000000000000081526004016114d890612010565b60405180910390fd5b8060048190555050565b60025481565b6114f9611874565b73ffffffffffffffffffffffffffffffffffffffff166115176111d6565b73ffffffffffffffffffffffffffffffffffffffff161461156d576040517f08c379a000000000000000000000000000000000000000000000000000000000815260040161156490612010565b60405180910390fd5b8060076000848152602001908152602001600020600101819055505050565b611594611874565b73ffffffffffffffffffffffffffffffffffffffff166115b26111d6565b73ffffffffffffffffffffffffffffffffffffffff1614611608576040517f08c379a00000000000000000000000000000000000000000000000000000000081526004016115ff90612010565b60405180910390fd5b670de0b6b3a76400008361161c919061205f565b6007600086815260200190815260200160002060000181905550816007600086815260200190815260200160002060020160006101000a81548160ff02191690831515021790555080600760008681526020019081526020016000206001018190555050505050565b61168d611874565b73ffffffffffffffffffffffffffffffffffffffff166116ab6111d6565b73ffffffffffffffffffffffffffffffffffffffff1614611701576040517f08c379a00000000000000000000000000000000000000000000000000000000081526004016116f890612010565b60405180910390fd5b8060066000848152602001908152602001600020600101819055505050565b611728611961565b6007600083815260200190815260200160002060405180606001604052908160008201548152602001600182015481526020016002820160009054906101000a900460ff1615151515815250509050919050565b611784611874565b73ffffffffffffffffffffffffffffffffffffffff166117a26111d6565b73ffffffffffffffffffffffffffffffffffffffff16146117f8576040517f08c379a00000000000000000000000000000000000000000000000000000000081526004016117ef90612010565b60405180910390fd5b600073ffffffffffffffffffffffffffffffffffffffff168173ffffffffffffffffffffffffffffffffffffffff161415611868576040517f08c379a000000000000000000000000000000000000000000000000000000000815260040161185f906124d8565b60405180910390fd5b6118718161187c565b50565b600033905090565b60008060009054906101000a900473ffffffffffffffffffffffffffffffffffffffff169050816000806101000a81548173ffffffffffffffffffffffffffffffffffffffff021916908373ffffffffffffffffffffffffffffffffffffffff1602179055508173ffffffffffffffffffffffffffffffffffffffff168173ffffffffffffffffffffffffffffffffffffffff167f8be0079c531659141344cd1fd0a4f28419497f9722a3daafe3b4186f6b6457e060405160405180910390a35050565b60405180606001604052806000815260200160008152602001600081525090565b604051806060016040528060008152602001600081526020016000151581525090565b6000604051905090565b600080fd5b600080fd5b6000819050919050565b6119ab81611998565b81146119b657600080fd5b50565b6000813590506119c8816119a2565b92915050565b6000602082840312156119e4576119e361198e565b5b60006119f2848285016119b9565b91505092915050565b600073ffffffffffffffffffffffffffffffffffffffff82169050919050565b6000611a26826119fb565b9050919050565b611a3681611a1b565b8114611a4157600080fd5b50565b600081359050611a5381611a2d565b92915050565b60008060408385031215611a7057611a6f61198e565b5b6000611a7e858286016119b9565b9250506020611a8f85828601611a44565b9150509250929050565b60008115159050919050565b611aae81611a99565b82525050565b6000602082019050611ac96000830184611aa5565b92915050565b60008060408385031215611ae657611ae561198e565b5b6000611af4858286016119b9565b9250506020611b05858286016119b9565b9150509250929050565b600080fd5b600080fd5b6000601f19601f8301169050919050565b7f4e487b7100000000000000000000000000000000000000000000000000000000600052604160045260246000fd5b611b6282611b19565b810181811067ffffffffffffffff82111715611b8157611b80611b2a565b5b80604052505050565b6000611b94611984565b9050611ba08282611b59565b919050565b600067ffffffffffffffff821115611bc057611bbf611b2a565b5b611bc982611b19565b9050602081019050919050565b82818337600083830152505050565b6000611bf8611bf384611ba5565b611b8a565b905082815260208101848484011115611c1457611c13611b14565b5b611c1f848285611bd6565b509392505050565b600082601f830112611c3c57611c3b611b0f565b5b8135611c4c848260208601611be5565b91505092915050565b600080600060608486031215611c6e57611c6d61198e565b5b6000611c7c868287016119b9565b9350506020611c8d868287016119b9565b925050604084013567ffffffffffffffff811115611cae57611cad611993565b5b611cba86828701611c27565b9150509250925092565b611ccd81611a99565b8114611cd857600080fd5b50565b600081359050611cea81611cc4565b92915050565b60008060408385031215611d0757611d0661198e565b5b6000611d15858286016119b9565b9250506020611d2685828601611cdb565b9150509250929050565b60008060408385031215611d4757611d4661198e565b5b6000611d55858286016119b9565b925050602083013567ffffffffffffffff811115611d7657611d75611993565b5b611d8285828601611c27565b9150509250929050565b611d9581611998565b82525050565b6000602082019050611db06000830184611d8c565b92915050565b611dbf81611a1b565b82525050565b6000602082019050611dda6000830184611db6565b92915050565b600060208284031215611df657611df561198e565b5b6000611e0484828501611a44565b91505092915050565b611e1681611998565b82525050565b606082016000820151611e326000850182611e0d565b506020820151611e456020850182611e0d565b506040820151611e586040850182611e0d565b50505050565b6000606082019050611e736000830184611e1c565b92915050565b60008060008060808587031215611e9357611e9261198e565b5b6000611ea1878288016119b9565b9450506020611eb2878288016119b9565b9350506040611ec3878288016119b9565b9250506060611ed4878288016119b9565b91505092959194509250565b60008060008060808587031215611efa57611ef961198e565b5b6000611f08878288016119b9565b9450506020611f19878288016119b9565b9350506040611f2a87828801611cdb565b9250506060611f3b878288016119b9565b91505092959194509250565b611f5081611a99565b82525050565b606082016000820151611f6c6000850182611e0d565b506020820151611f7f6020850182611e0d565b506040820151611f926040850182611f47565b50505050565b6000606082019050611fad6000830184611f56565b92915050565b600082825260208201905092915050565b7f4f776e61626c653a2063616c6c6572206973206e6f7420746865206f776e6572600082015250565b6000611ffa602083611fb3565b915061200582611fc4565b602082019050919050565b6000602082019050818103600083015261202981611fed565b9050919050565b7f4e487b7100000000000000000000000000000000000000000000000000000000600052601160045260246000fd5b600061206a82611998565b915061207583611998565b9250817fffffffffffffffffffffffffffffffffffffffffffffffffffffffffffffffff04831182151516156120ae576120ad612030565b5b828202905092915050565b60006120c482611998565b91506120cf83611998565b9250827fffffffffffffffffffffffffffffffffffffffffffffffffffffffffffffffff0382111561210457612103612030565b5b828201905092915050565b600061211a82611998565b91507fffffffffffffffffffffffffffffffffffffffffffffffffffffffffffffffff82141561214d5761214c612030565b5b600182019050919050565b7f526166666c6520656e6465642e00000000000000000000000000000000000000600082015250565b600061218e600d83611fb3565b915061219982612158565b602082019050919050565b600060208201905081810360008301526121bd81612181565b9050919050565b7f416c726561647920656e74657265640000000000000000000000000000000000600082015250565b60006121fa600f83611fb3565b9150612205826121c4565b602082019050919050565b60006020820190508181036000830152612229816121ed565b9050919050565b60006040820190506122456000830185611db6565b6122526020830184611d8c565b9392505050565b600081519050919050565b60005b83811015612282578082015181840152602081019050612267565b83811115612291576000848401525b50505050565b60006122a282612259565b6122ac8185611fb3565b93506122bc818560208601612264565b6122c581611b19565b840191505092915050565b60006040820190506122e56000830185611d8c565b81810360208301526122f78184612297565b90509392505050565b7f4e6f74206c697665207965742e00000000000000000000000000000000000000600082015250565b6000612336600d83611fb3565b915061234182612300565b602082019050919050565b6000602082019050818103600083015261236581612329565b9050919050565b7f4e6f2073706f7473206c65667400000000000000000000000000000000000000600082015250565b60006123a2600d83611fb3565b91506123ad8261236c565b602082019050919050565b600060208201905081810360008301526123d181612395565b9050919050565b7f416464726573732068617320616c726561647920707572636861736564000000600082015250565b600061240e601d83611fb3565b9150612419826123d8565b602082019050919050565b6000602082019050818103600083015261243d81612401565b9050919050565b6000602082019050818103600083015261245e8184612297565b905092915050565b7f4f776e61626c653a206e6577206f776e657220697320746865207a65726f206160008201527f6464726573730000000000000000000000000000000000000000000000000000602082015250565b60006124c2602683611fb3565b91506124cd82612466565b604082019050919050565b600060208201905081810360008301526124f1816124b5565b905091905056fea26469706673582212208fc6bff4d42adb122a3f3de48e4221ac7220a0e2c6efce4e6975e0593fd95fab64736f6c63430008090033",
  "linkReferences": {},
  "deployedLinkReferences": {}
}