{
  "_format": "hh-sol-artifact-1",
  "contractName": "God",
  "sourceName": "contracts/God.sol",
  "abi": [
    {
      "inputs": [
        {
          "internalType": "address",
          "name": "_faith",
          "type": "address"
        },
        {
          "internalType": "address",
          "name": "_traits",
          "type": "address"
        },
        {
          "internalType": "uint256",
          "name": "_maxTokens",
          "type": "uint256"
        }
      ],
      "stateMutability": "nonpayable",
      "type": "constructor"
    },
    {
      "anonymous": false,
      "inputs": [
        {
          "indexed": true,
          "internalType": "address",
          "name": "owner",
          "type": "address"
        },
        {
          "indexed": true,
          "internalType": "address",
          "name": "approved",
          "type": "address"
        },
        {
          "indexed": true,
          "internalType": "uint256",
          "name": "tokenId",
          "type": "uint256"
        }
      ],
      "name": "Approval",
      "type": "event"
    },
    {
      "anonymous": false,
      "inputs": [
        {
          "indexed": true,
          "internalType": "address",
          "name": "owner",
          "type": "address"
        },
        {
          "indexed": true,
          "internalType": "address",
          "name": "operator",
          "type": "address"
        },
        {
          "indexed": false,
          "internalType": "bool",
          "name": "approved",
          "type": "bool"
        }
      ],
      "name": "ApprovalForAll",
      "type": "event"
    },
    {
      "anonymous": false,
      "inputs": [
        {
          "indexed": true,
          "internalType": "address",
          "name": "previousOwner",
          "type": "address"
        },
        {
          "indexed": true,
          "internalType": "address",
          "name": "newOwner",
          "type": "address"
        }
      ],
      "name": "OwnershipTransferred",
      "type": "event"
    },
    {
      "anonymous": false,
      "inputs": [
        {
          "indexed": false,
          "internalType": "address",
          "name": "account",
          "type": "address"
        }
      ],
      "name": "Paused",
      "type": "event"
    },
    {
      "anonymous": false,
      "inputs": [
        {
          "indexed": true,
          "internalType": "address",
          "name": "from",
          "type": "address"
        },
        {
          "indexed": true,
          "internalType": "address",
          "name": "to",
          "type": "address"
        },
        {
          "indexed": true,
          "internalType": "uint256",
          "name": "tokenId",
          "type": "uint256"
        }
      ],
      "name": "Transfer",
      "type": "event"
    },
    {
      "anonymous": false,
      "inputs": [
        {
          "indexed": false,
          "internalType": "address",
          "name": "account",
          "type": "address"
        }
      ],
      "name": "Unpaused",
      "type": "event"
    },
    {
      "inputs": [],
      "name": "MAX_TOKENS",
      "outputs": [
        {
          "internalType": "uint256",
          "name": "",
          "type": "uint256"
        }
      ],
      "stateMutability": "view",
      "type": "function"
    },
    {
      "inputs": [],
      "name": "MINT_PRICE",
      "outputs": [
        {
          "internalType": "uint256",
          "name": "",
          "type": "uint256"
        }
      ],
      "stateMutability": "view",
      "type": "function"
    },
    {
      "inputs": [],
      "name": "PAID_TOKENS",
      "outputs": [
        {
          "internalType": "uint256",
          "name": "",
          "type": "uint256"
        }
      ],
      "stateMutability": "view",
      "type": "function"
    },
    {
      "inputs": [
        {
          "internalType": "uint256",
          "name": "",
          "type": "uint256"
        },
        {
          "internalType": "uint256",
          "name": "",
          "type": "uint256"
        }
      ],
      "name": "aliases",
      "outputs": [
        {
          "internalType": "uint8",
          "name": "",
          "type": "uint8"
        }
      ],
      "stateMutability": "view",
      "type": "function"
    },
    {
      "inputs": [
        {
          "internalType": "address",
          "name": "to",
          "type": "address"
        },
        {
          "internalType": "uint256",
          "name": "tokenId",
          "type": "uint256"
        }
      ],
      "name": "approve",
      "outputs": [],
      "stateMutability": "nonpayable",
      "type": "function"
    },
    {
      "inputs": [
        {
          "internalType": "address",
          "name": "owner",
          "type": "address"
        }
      ],
      "name": "balanceOf",
      "outputs": [
        {
          "internalType": "uint256",
          "name": "",
          "type": "uint256"
        }
      ],
      "stateMutability": "view",
      "type": "function"
    },
    {
      "inputs": [
        {
          "internalType": "bool",
          "name": "steal",
          "type": "bool"
        }
      ],
      "name": "enableSteal",
      "outputs": [],
      "stateMutability": "nonpayable",
      "type": "function"
    },
    {
      "inputs": [
        {
          "internalType": "uint256",
          "name": "",
          "type": "uint256"
        }
      ],
      "name": "existingCombinations",
      "outputs": [
        {
          "internalType": "uint256",
          "name": "",
          "type": "uint256"
        }
      ],
      "stateMutability": "view",
      "type": "function"
    },
    {
      "inputs": [],
      "name": "faith",
      "outputs": [
        {
          "internalType": "contract FAITH",
          "name": "",
          "type": "address"
        }
      ],
      "stateMutability": "view",
      "type": "function"
    },
    {
      "inputs": [
        {
          "internalType": "uint256",
          "name": "tokenId",
          "type": "uint256"
        }
      ],
      "name": "getApproved",
      "outputs": [
        {
          "internalType": "address",
          "name": "",
          "type": "address"
        }
      ],
      "stateMutability": "view",
      "type": "function"
    },
    {
      "inputs": [],
      "name": "getPaidTokens",
      "outputs": [
        {
          "internalType": "uint256",
          "name": "",
          "type": "uint256"
        }
      ],
      "stateMutability": "view",
      "type": "function"
    },
    {
      "inputs": [
        {
          "internalType": "uint256",
          "name": "tokenId",
          "type": "uint256"
        }
      ],
      "name": "getTokenTraits",
      "outputs": [
        {
          "components": [
            {
              "internalType": "bool",
              "name": "isWorshipper",
              "type": "bool"
            },
            {
              "internalType": "uint8",
              "name": "tone",
              "type": "uint8"
            },
            {
              "internalType": "uint8",
              "name": "head",
              "type": "uint8"
            },
            {
              "internalType": "uint8",
              "name": "clothes",
              "type": "uint8"
            },
            {
              "internalType": "uint8",
              "name": "eyes",
              "type": "uint8"
            },
            {
              "internalType": "uint8",
              "name": "nose",
              "type": "uint8"
            },
            {
              "internalType": "uint8",
              "name": "beard",
              "type": "uint8"
            },
            {
              "internalType": "uint8",
              "name": "mouth",
              "type": "uint8"
            },
            {
              "internalType": "uint8",
              "name": "feet",
              "type": "uint8"
            },
            {
              "internalType": "uint8",
              "name": "divinityIndex",
              "type": "uint8"
            }
          ],
          "internalType": "struct IGod.WorshipperGod",
          "name": "",
          "type": "tuple"
        }
      ],
      "stateMutability": "view",
      "type": "function"
    },
    {
      "inputs": [
        {
          "internalType": "address",
          "name": "owner",
          "type": "address"
        },
        {
          "internalType": "address",
          "name": "operator",
          "type": "address"
        }
      ],
      "name": "isApprovedForAll",
      "outputs": [
        {
          "internalType": "bool",
          "name": "",
          "type": "bool"
        }
      ],
      "stateMutability": "view",
      "type": "function"
    },
    {
      "inputs": [
        {
          "internalType": "uint256",
          "name": "amount",
          "type": "uint256"
        },
        {
          "internalType": "bool",
          "name": "stake",
          "type": "bool"
        }
      ],
      "name": "mint",
      "outputs": [],
      "stateMutability": "payable",
      "type": "function"
    },
    {
      "inputs": [
        {
          "internalType": "uint256",
          "name": "tokenId",
          "type": "uint256"
        }
      ],
      "name": "mintCost",
      "outputs": [
        {
          "internalType": "uint256",
          "name": "",
          "type": "uint256"
        }
      ],
      "stateMutability": "view",
      "type": "function"
    },
    {
      "inputs": [],
      "name": "minted",
      "outputs": [
        {
          "internalType": "uint16",
          "name": "",
          "type": "uint16"
        }
      ],
      "stateMutability": "view",
      "type": "function"
    },
    {
      "inputs": [],
      "name": "name",
      "outputs": [
        {
          "internalType": "string",
          "name": "",
          "type": "string"
        }
      ],
      "stateMutability": "view",
      "type": "function"
    },
    {
      "inputs": [],
      "name": "owner",
      "outputs": [
        {
          "internalType": "address",
          "name": "",
          "type": "address"
        }
      ],
      "stateMutability": "view",
      "type": "function"
    },
    {
      "inputs": [
        {
          "internalType": "uint256",
          "name": "tokenId",
          "type": "uint256"
        }
      ],
      "name": "ownerOf",
      "outputs": [
        {
          "internalType": "address",
          "name": "",
          "type": "address"
        }
      ],
      "stateMutability": "view",
      "type": "function"
    },
    {
      "inputs": [],
      "name": "paused",
      "outputs": [
        {
          "internalType": "bool",
          "name": "",
          "type": "bool"
        }
      ],
      "stateMutability": "view",
      "type": "function"
    },
    {
      "inputs": [
        {
          "internalType": "uint256",
          "name": "",
          "type": "uint256"
        },
        {
          "internalType": "uint256",
          "name": "",
          "type": "uint256"
        }
      ],
      "name": "rarities",
      "outputs": [
        {
          "internalType": "uint8",
          "name": "",
          "type": "uint8"
        }
      ],
      "stateMutability": "view",
      "type": "function"
    },
    {
      "inputs": [],
      "name": "renounceOwnership",
      "outputs": [],
      "stateMutability": "nonpayable",
      "type": "function"
    },
    {
      "inputs": [
        {
          "internalType": "address",
          "name": "from",
          "type": "address"
        },
        {
          "internalType": "address",
          "name": "to",
          "type": "address"
        },
        {
          "internalType": "uint256",
          "name": "tokenId",
          "type": "uint256"
        }
      ],
      "name": "safeTransferFrom",
      "outputs": [],
      "stateMutability": "nonpayable",
      "type": "function"
    },
    {
      "inputs": [
        {
          "internalType": "address",
          "name": "from",
          "type": "address"
        },
        {
          "internalType": "address",
          "name": "to",
          "type": "address"
        },
        {
          "internalType": "uint256",
          "name": "tokenId",
          "type": "uint256"
        },
        {
          "internalType": "bytes",
          "name": "_data",
          "type": "bytes"
        }
      ],
      "name": "safeTransferFrom",
      "outputs": [],
      "stateMutability": "nonpayable",
      "type": "function"
    },
    {
      "inputs": [
        {
          "internalType": "address",
          "name": "operator",
          "type": "address"
        },
        {
          "internalType": "bool",
          "name": "approved",
          "type": "bool"
        }
      ],
      "name": "setApprovalForAll",
      "outputs": [],
      "stateMutability": "nonpayable",
      "type": "function"
    },
    {
      "inputs": [
        {
          "internalType": "uint256",
          "name": "_paidTokens",
          "type": "uint256"
        }
      ],
      "name": "setPaidTokens",
      "outputs": [],
      "stateMutability": "nonpayable",
      "type": "function"
    },
    {
      "inputs": [
        {
          "internalType": "bool",
          "name": "_paused",
          "type": "bool"
        }
      ],
      "name": "setPaused",
      "outputs": [],
      "stateMutability": "nonpayable",
      "type": "function"
    },
    {
      "inputs": [],
      "name": "setSteal",
      "outputs": [
        {
          "internalType": "bool",
          "name": "",
          "type": "bool"
        }
      ],
      "stateMutability": "view",
      "type": "function"
    },
    {
      "inputs": [
        {
          "internalType": "address",
          "name": "_temple",
          "type": "address"
        }
      ],
      "name": "setTemple",
      "outputs": [],
      "stateMutability": "nonpayable",
      "type": "function"
    },
    {
      "inputs": [
        {
          "internalType": "bytes4",
          "name": "interfaceId",
          "type": "bytes4"
        }
      ],
      "name": "supportsInterface",
      "outputs": [
        {
          "internalType": "bool",
          "name": "",
          "type": "bool"
        }
      ],
      "stateMutability": "view",
      "type": "function"
    },
    {
      "inputs": [],
      "name": "symbol",
      "outputs": [
        {
          "internalType": "string",
          "name": "",
          "type": "string"
        }
      ],
      "stateMutability": "view",
      "type": "function"
    },
    {
      "inputs": [],
      "name": "temple",
      "outputs": [
        {
          "internalType": "contract ITemple",
          "name": "",
          "type": "address"
        }
      ],
      "stateMutability": "view",
      "type": "function"
    },
    {
      "inputs": [
        {
          "internalType": "uint256",
          "name": "index",
          "type": "uint256"
        }
      ],
      "name": "tokenByIndex",
      "outputs": [
        {
          "internalType": "uint256",
          "name": "",
          "type": "uint256"
        }
      ],
      "stateMutability": "view",
      "type": "function"
    },
    {
      "inputs": [
        {
          "internalType": "address",
          "name": "owner",
          "type": "address"
        },
        {
          "internalType": "uint256",
          "name": "index",
          "type": "uint256"
        }
      ],
      "name": "tokenOfOwnerByIndex",
      "outputs": [
        {
          "internalType": "uint256",
          "name": "",
          "type": "uint256"
        }
      ],
      "stateMutability": "view",
      "type": "function"
    },
    {
      "inputs": [
        {
          "internalType": "uint256",
          "name": "",
          "type": "uint256"
        }
      ],
      "name": "tokenTraits",
      "outputs": [
        {
          "internalType": "bool",
          "name": "isWorshipper",
          "type": "bool"
        },
        {
          "internalType": "uint8",
          "name": "tone",
          "type": "uint8"
        },
        {
          "internalType": "uint8",
          "name": "head",
          "type": "uint8"
        },
        {
          "internalType": "uint8",
          "name": "clothes",
          "type": "uint8"
        },
        {
          "internalType": "uint8",
          "name": "eyes",
          "type": "uint8"
        },
        {
          "internalType": "uint8",
          "name": "nose",
          "type": "uint8"
        },
        {
          "internalType": "uint8",
          "name": "beard",
          "type": "uint8"
        },
        {
          "internalType": "uint8",
          "name": "mouth",
          "type": "uint8"
        },
        {
          "internalType": "uint8",
          "name": "feet",
          "type": "uint8"
        },
        {
          "internalType": "uint8",
          "name": "divinityIndex",
          "type": "uint8"
        }
      ],
      "stateMutability": "view",
      "type": "function"
    },
    {
      "inputs": [
        {
          "internalType": "uint256",
          "name": "tokenId",
          "type": "uint256"
        }
      ],
      "name": "tokenURI",
      "outputs": [
        {
          "internalType": "string",
          "name": "",
          "type": "string"
        }
      ],
      "stateMutability": "view",
      "type": "function"
    },
    {
      "inputs": [],
      "name": "totalSupply",
      "outputs": [
        {
          "internalType": "uint256",
          "name": "",
          "type": "uint256"
        }
      ],
      "stateMutability": "view",
      "type": "function"
    },
    {
      "inputs": [],
      "name": "traits",
      "outputs": [
        {
          "internalType": "contract ITraits",
          "name": "",
          "type": "address"
        }
      ],
      "stateMutability": "view",
      "type": "function"
    },
    {
      "inputs": [
        {
          "internalType": "address",
          "name": "from",
          "type": "address"
        },
        {
          "internalType": "address",
          "name": "to",
          "type": "address"
        },
        {
          "internalType": "uint256",
          "name": "tokenId",
          "type": "uint256"
        }
      ],
      "name": "transferFrom",
      "outputs": [],
      "stateMutability": "nonpayable",
      "type": "function"
    },
    {
      "inputs": [
        {
          "internalType": "address",
          "name": "newOwner",
          "type": "address"
        }
      ],
      "name": "transferOwnership",
      "outputs": [],
      "stateMutability": "nonpayable",
      "type": "function"
    },
    {
      "inputs": [],
      "name": "withdraw",
      "outputs": [],
      "stateMutability": "nonpayable",
      "type": "function"
    }
  ],
  "bytecode": "0x60a06040523480156200001157600080fd5b506040516200786a3803806200786a833981810160405281019062000037919062001ce1565b6040518060400160405280600881526020017f476f642047616d650000000000000000000000000000000000000000000000008152506040518060400160405280600581526020017f4747414d450000000000000000000000000000000000000000000000000000008152508160009080519060200190620000bb929190620014c0565b508060019080519060200190620000d4929190620014c0565b505050620000f7620000eb620013f260201b60201c565b620013fa60201b60201c565b6000600a60146101000a81548160ff02191690831515021790555082603460006101000a81548173ffffffffffffffffffffffffffffffffffffffff021916908373ffffffffffffffffffffffffffffffffffffffff16021790555081603560006101000a81548173ffffffffffffffffffffffffffffffffffffffff021916908373ffffffffffffffffffffffffffffffffffffffff1602179055508060808181525050600581620001ab919062001d6c565b600b81905550604051806101000160405280608260ff168152602001608260ff168152602001608260ff168152602001608260ff168152602001605060ff168152602001605060ff168152602001605060ff168152602001605060ff16815250600f60006012811062000223576200022262001da4565b5b019060086200023492919062001551565b50604051806101000160405280600260ff168152602001600160ff168152602001600360ff168152602001600160ff168152602001600660ff168152602001600260ff168152602001600360ff168152602001600460ff168152506021600060128110620002a757620002a662001da4565b5b01906008620002b892919062001551565b50604051806103c0016040528060be60ff16815260200160d760ff16815260200160c860ff168152602001606e60ff168152602001608260ff168152602001608760ff16815260200160a060ff16815260200160b960ff16815260200160c860ff16815260200160c860ff16815260200160d260ff16815260200160c860ff16815260200160c860ff16815260200160c860ff168152602001606460ff168152602001606460ff16815260200160b460ff16815260200160b460ff16815260200160c860ff16815260200160b460ff168152602001606460ff168152602001606460ff168152602001607860ff168152602001607860ff168152602001606460ff16815260200160c860ff16815260200160b460ff16815260200160c860ff16815260200160be60ff168152602001606460ff16815250600f60016012811062000407576200040662001da4565b5b0190601e62000418929190620015ff565b50604051806103c00160405280600160ff168152602001600c60ff168152602001600460ff168152602001600060ff168152602001600360ff168152602001600660ff168152602001600760ff168152602001600960ff168152602001600060ff168152602001600a60ff168152602001600b60ff168152602001600f60ff168152602001600260ff168152602001600060ff168152602001600c60ff168152602001600e60ff168152602001600960ff168152602001600860ff168152602001600660ff168152602001600e60ff168152602001601860ff168152602001601760ff168152602001600d60ff168152602001601260ff168152602001601b60ff168152602001600b60ff168152602001601360ff168152602001601c60ff168152602001600560ff168152602001600160ff16815250602160016012811062000567576200056662001da4565b5b0190601e62000578929190620015ff565b50604051806102000160405280606460ff168152602001606460ff168152602001607860ff168152602001605a60ff16815260200160b460ff168152602001608c60ff168152602001605a60ff168152602001609660ff168152602001609660ff168152602001607860ff168152602001606460ff168152602001607860ff168152602001605a60ff168152602001606460ff168152602001606460ff168152602001605a60ff16815250600f6002601281106200063b576200063a62001da4565b5b019060106200064c929190620016ad565b50604051806102000160405280600c60ff168152602001600660ff168152602001600260ff168152602001600060ff168152602001600160ff168152602001600360ff168152602001600260ff168152602001600560ff168152602001600860ff168152602001600460ff168152602001600a60ff168152602001600960ff168152602001600760ff168152602001600b60ff168152602001600d60ff168152602001600e60ff1681525060216002601281106200070f576200070e62001da4565b5b0190601062000720929190620016ad565b5060405180610280016040528060dc60ff16815260200160dd60ff168152602001606460ff16815260200160b560ff168152602001608c60ff16815260200160e060ff168152602001609360ff168152602001605a60ff16815260200160e460ff168152602001608c60ff16815260200160e060ff16815260200160c860ff168152602001608260ff16815260200160b460ff16815260200160cf60ff16815260200160ad60ff168152602001605460ff168152602001605060ff168152602001605a60ff168152602001606460ff16815250600f6003601281106200080b576200080a62001da4565b5b019060146200081c9291906200175b565b50604051806102800160405280600160ff168152602001600260ff168152602001600560ff168152602001600060ff168152602001600360ff168152602001600760ff168152602001600160ff168152602001600a60ff168152602001600560ff168152602001600a60ff168152602001600460ff168152602001600c60ff168152602001600b60ff168152602001600960ff168152602001601060ff168152602001600b60ff168152602001600660ff168152602001600860ff168152602001601160ff168152602001600e60ff16815250602160036012811062000907576200090662001da4565b5b01906014620009189291906200175b565b506040518060600160405280604b60ff168152602001606460ff168152602001602860ff16815250600f60046012811062000958576200095762001da4565b5b019060036200096992919062001809565b506040518060600160405280600260ff168152602001600060ff168152602001600160ff168152506021600460128110620009a957620009a862001da4565b5b01906003620009ba92919062001809565b506040518060e00160405280605060ff16815260200160e160ff16815260200160e360ff16815260200160e460ff168152602001607060ff16815260200160dc60ff168152602001608c60ff16815250600f60056012811062000a225762000a2162001da4565b5b0190600762000a33929190620018b7565b506040518060e00160405280600660ff168152602001600160ff168152602001600260ff168152602001600360ff168152602001600460ff168152602001600060ff168152602001600560ff16815250602160056012811062000a9b5762000a9a62001da4565b5b0190600762000aac929190620018b7565b506040518060a0016040528060be60ff16815260200160e360ff168152602001607060ff16815260200160c860ff16815260200160b460ff16815250600f60066012811062000b005762000aff62001da4565b5b0190600562000b1192919062001965565b506040518060a00160405280600060ff168152602001600260ff168152602001600460ff168152602001600160ff168152602001600360ff16815250602160066012811062000b655762000b6462001da4565b5b0190600562000b7692919062001965565b5060405180610100016040528060dc60ff16815260200160be60ff16815260200160be60ff168152602001603c60ff168152602001603260ff168152602001603c60ff168152602001603c60ff168152602001603260ff16815250600f60076012811062000be95762000be862001da4565b5b0190600862000bfa92919062001551565b50604051806101000160405280600260ff168152602001600160ff168152602001600260ff168152602001600060ff168152602001600160ff168152602001600560ff168152602001600360ff168152602001600760ff16815250602160076012811062000c6d5762000c6c62001da4565b5b0190600862000c7e92919062001551565b50604051806020016040528060ff8016815250600f60086012811062000ca95762000ca862001da4565b5b0190600162000cba92919062001a13565b506040518060200160405280600060ff16815250602160086012811062000ce65762000ce562001da4565b5b0190600162000cf792919062001a13565b506040518060e00160405280607860ff168152602001607860ff168152602001607860ff168152602001607860ff168152602001605060ff168152602001605060ff168152602001603260ff16815250600f60096012811062000d5f5762000d5e62001da4565b5b0190600762000d70929190620018b7565b506040518060e00160405280600260ff168152602001600360ff168152602001600260ff168152602001600060ff168152602001600160ff168152602001600560ff168152602001600360ff16815250602160096012811062000dd85762000dd762001da4565b5b0190600762000de9929190620018b7565b506040518060800160405280600a60ff168152602001606460ff16815260200160b460ff16815260200160fa60ff16815250600f600a6012811062000e335762000e3262001da4565b5b0190600462000e4492919062001ac1565b506040518060800160405280600060ff168152602001600160ff168152602001600260ff168152602001600360ff168152506021600a6012811062000e8e5762000e8d62001da4565b5b0190600462000e9f92919062001ac1565b50604051806020016040528060ff8016815250600f600b6012811062000eca5762000ec962001da4565b5b0190600162000edb92919062001a13565b506040518060200160405280600060ff168152506021600b6012811062000f075762000f0662001da4565b5b0190600162000f1892919062001a13565b506040518060a00160405280604660ff168152602001609660ff168152602001606460ff168152602001606460ff168152602001606460ff16815250600f600c6012811062000f6c5762000f6b62001da4565b5b0190600562000f7d92919062001965565b506040518060a00160405280600260ff168152602001600460ff168152602001600160ff168152602001600360ff168152602001600260ff168152506021600c6012811062000fd15762000fd062001da4565b5b0190600562000fe292919062001965565b50604051806020016040528060ff8016815250600f600d601281106200100d576200100c62001da4565b5b019060016200101e92919062001a13565b506040518060200160405280600060ff168152506021600d601281106200104a576200104962001da4565b5b019060016200105b92919062001a13565b5060405180610180016040528060c860ff16815260200160dc60ff168152602001606460ff16815260200160ea60ff16815260200160ea60ff168152602001609660ff16815260200160b460ff168152602001608c60ff168152602001609660ff168152602001607860ff16815260200160c860ff16815260200160a060ff16815250600f600e60128110620010f657620010f562001da4565b5b0190600c6200110792919062001b6f565b50604051806101800160405280600160ff168152602001600360ff168152602001600960ff168152602001600060ff168152602001600a60ff168152602001600860ff168152602001600860ff168152602001600460ff168152602001600160ff168152602001600060ff168152602001600660ff168152602001600860ff168152506021600e60128110620011a257620011a162001da4565b5b0190600c620011b392919062001b6f565b50604051806101000160405280608c60ff168152602001608260ff16815260200160a560ff168152602001607860ff168152602001606460ff168152602001609660ff16815260200160a060ff168152602001606460ff16815250600f806012811062001225576200122462001da4565b5b019060086200123692919062001551565b50604051806101000160405280600160ff168152602001600460ff168152602001600060ff168152602001600660ff168152602001600260ff168152602001600360ff168152602001600560ff168152602001600360ff168152506021600f60128110620012a957620012a862001da4565b5b01906008620012ba92919062001551565b50604051806020016040528060ff8016815250600f601060128110620012e557620012e462001da4565b5b01906001620012f692919062001a13565b506040518060200160405280600060ff16815250602160106012811062001322576200132162001da4565b5b019060016200133392919062001a13565b506040518060800160405280600860ff16815260200160a060ff168152602001604960ff16815260200160ff8016815250600f6011601281106200137c576200137b62001da4565b5b019060046200138d92919062001ac1565b506040518060800160405280600260ff168152602001600360ff168152602001600360ff168152602001600360ff168152506021601160128110620013d757620013d662001da4565b5b01906004620013e892919062001ac1565b5050505062001e38565b600033905090565b6000600a60009054906101000a900473ffffffffffffffffffffffffffffffffffffffff16905081600a60006101000a81548173ffffffffffffffffffffffffffffffffffffffff021916908373ffffffffffffffffffffffffffffffffffffffff1602179055508173ffffffffffffffffffffffffffffffffffffffff168173ffffffffffffffffffffffffffffffffffffffff167f8be0079c531659141344cd1fd0a4f28419497f9722a3daafe3b4186f6b6457e060405160405180910390a35050565b828054620014ce9062001e02565b90600052602060002090601f016020900481019282620014f257600085556200153e565b82601f106200150d57805160ff19168380011785556200153e565b828001600101855582156200153e579182015b828111156200153d57825182559160200191906001019062001520565b5b5090506200154d919062001c1d565b5090565b82805482825590600052602060002090601f01602090048101928215620015ec5791602002820160005b83821115620015bb57835183826101000a81548160ff021916908360ff16021790555092602001926001016020816000010492830192600103026200157b565b8015620015ea5782816101000a81549060ff0219169055600101602081600001049283019260010302620015bb565b505b509050620015fb919062001c1d565b5090565b82805482825590600052602060002090601f016020900481019282156200169a5791602002820160005b838211156200166957835183826101000a81548160ff021916908360ff160217905550926020019260010160208160000104928301926001030262001629565b8015620016985782816101000a81549060ff021916905560010160208160000104928301926001030262001669565b505b509050620016a9919062001c1d565b5090565b82805482825590600052602060002090601f01602090048101928215620017485791602002820160005b838211156200171757835183826101000a81548160ff021916908360ff1602179055509260200192600101602081600001049283019260010302620016d7565b8015620017465782816101000a81549060ff021916905560010160208160000104928301926001030262001717565b505b50905062001757919062001c1d565b5090565b82805482825590600052602060002090601f01602090048101928215620017f65791602002820160005b83821115620017c557835183826101000a81548160ff021916908360ff160217905550926020019260010160208160000104928301926001030262001785565b8015620017f45782816101000a81549060ff0219169055600101602081600001049283019260010302620017c5565b505b50905062001805919062001c1d565b5090565b82805482825590600052602060002090601f01602090048101928215620018a45791602002820160005b838211156200187357835183826101000a81548160ff021916908360ff160217905550926020019260010160208160000104928301926001030262001833565b8015620018a25782816101000a81549060ff021916905560010160208160000104928301926001030262001873565b505b509050620018b3919062001c1d565b5090565b82805482825590600052602060002090601f01602090048101928215620019525791602002820160005b838211156200192157835183826101000a81548160ff021916908360ff1602179055509260200192600101602081600001049283019260010302620018e1565b8015620019505782816101000a81549060ff021916905560010160208160000104928301926001030262001921565b505b50905062001961919062001c1d565b5090565b82805482825590600052602060002090601f0160209004810192821562001a005791602002820160005b83821115620019cf57835183826101000a81548160ff021916908360ff16021790555092602001926001016020816000010492830192600103026200198f565b8015620019fe5782816101000a81549060ff0219169055600101602081600001049283019260010302620019cf565b505b50905062001a0f919062001c1d565b5090565b82805482825590600052602060002090601f0160209004810192821562001aae5791602002820160005b8382111562001a7d57835183826101000a81548160ff021916908360ff160217905550926020019260010160208160000104928301926001030262001a3d565b801562001aac5782816101000a81549060ff021916905560010160208160000104928301926001030262001a7d565b505b50905062001abd919062001c1d565b5090565b82805482825590600052602060002090601f0160209004810192821562001b5c5791602002820160005b8382111562001b2b57835183826101000a81548160ff021916908360ff160217905550926020019260010160208160000104928301926001030262001aeb565b801562001b5a5782816101000a81549060ff021916905560010160208160000104928301926001030262001b2b565b505b50905062001b6b919062001c1d565b5090565b82805482825590600052602060002090601f0160209004810192821562001c0a5791602002820160005b8382111562001bd957835183826101000a81548160ff021916908360ff160217905550926020019260010160208160000104928301926001030262001b99565b801562001c085782816101000a81549060ff021916905560010160208160000104928301926001030262001bd9565b505b50905062001c19919062001c1d565b5090565b5b8082111562001c3857600081600090555060010162001c1e565b5090565b600080fd5b600073ffffffffffffffffffffffffffffffffffffffff82169050919050565b600062001c6e8262001c41565b9050919050565b62001c808162001c61565b811462001c8c57600080fd5b50565b60008151905062001ca08162001c75565b92915050565b6000819050919050565b62001cbb8162001ca6565b811462001cc757600080fd5b50565b60008151905062001cdb8162001cb0565b92915050565b60008060006060848603121562001cfd5762001cfc62001c3c565b5b600062001d0d8682870162001c8f565b935050602062001d208682870162001c8f565b925050604062001d338682870162001cca565b9150509250925092565b7f4e487b7100000000000000000000000000000000000000000000000000000000600052601260045260246000fd5b600062001d798262001ca6565b915062001d868362001ca6565b92508262001d995762001d9862001d3d565b5b828204905092915050565b7f4e487b7100000000000000000000000000000000000000000000000000000000600052603260045260246000fd5b7f4e487b7100000000000000000000000000000000000000000000000000000000600052602260045260246000fd5b6000600282049050600182168062001e1b57607f821691505b6020821081141562001e325762001e3162001dd3565b5b50919050565b608051615a0162001e6960003960008181610ed001528181610f21015281816113f101526122880152615a016000f3fe6080604052600436106102465760003560e01c806367f68fac11610139578063b88d4fde116100b6578063e05c57bf1161007a578063e05c57bf146108bd578063e1fc334f14610903578063e985e9c51461092e578063f2fde38b1461096b578063f47c84c514610994578063fed51e70146109bf57610246565b8063b88d4fde146107d6578063c002d23d146107ff578063c084f5401461082a578063c832935014610855578063c87b56dd1461088057610246565b806394e56847116100fd57806394e56847146106dd57806395d89b411461071a57806397cd9a3414610745578063a1b8f37414610770578063a22cb465146107ad57610246565b806367f68fac146106175780636e5640c61461063357806370a082311461065e578063715018a61461069b5780638da5cb5b146106b257610246565b806333df4b2c116101c757806342842e0e1161018b57806342842e0e1461051e5780634f02c420146105475780634f6ccce7146105725780635c975abb146105af5780636352211e146105da57610246565b806333df4b2c146104395780633431a75314610476578063368383911461049f5780633ccfd60b146104dc5780634018b1f8146104f357610246565b806316c38b3c1161020e57806316c38b3c1461034257806318160ddd1461036b57806323b872dd1461039657806327de8f27146103bf5780632f745c59146103fc57610246565b806301ffc9a71461024b57806302d2cd391461028857806306fdde03146102b1578063081812fc146102dc578063095ea7b314610319575b600080fd5b34801561025757600080fd5b50610272600480360381019061026d9190613b42565b6109e8565b60405161027f9190613b8a565b60405180910390f35b34801561029457600080fd5b506102af60048036038101906102aa9190613c03565b610a62565b005b3480156102bd57600080fd5b506102c6610b22565b6040516102d39190613cc9565b60405180910390f35b3480156102e857600080fd5b5061030360048036038101906102fe9190613d21565b610bb4565b6040516103109190613d5d565b60405180910390f35b34801561032557600080fd5b50610340600480360381019061033b9190613d78565b610c39565b005b34801561034e57600080fd5b5061036960048036038101906103649190613de4565b610d51565b005b34801561037757600080fd5b50610380610dec565b60405161038d9190613e20565b60405180910390f35b3480156103a257600080fd5b506103bd60048036038101906103b89190613e3b565b610df9565b005b3480156103cb57600080fd5b506103e660048036038101906103e19190613d21565b610eb6565b6040516103f39190613e20565b60405180910390f35b34801561040857600080fd5b50610423600480360381019061041e9190613d78565b610f7f565b6040516104309190613e20565b60405180910390f35b34801561044557600080fd5b50610460600480360381019061045b9190613e8e565b611024565b60405161046d9190613eea565b60405180910390f35b34801561048257600080fd5b5061049d60048036038101906104989190613d21565b61106a565b005b3480156104ab57600080fd5b506104c660048036038101906104c19190613e8e565b6110f0565b6040516104d39190613eea565b60405180910390f35b3480156104e857600080fd5b506104f1611136565b005b3480156104ff57600080fd5b50610508611202565b6040516105159190613e20565b60405180910390f35b34801561052a57600080fd5b5061054560048036038101906105409190613e3b565b61120c565b005b34801561055357600080fd5b5061055c61122c565b6040516105699190613f22565b60405180910390f35b34801561057e57600080fd5b5061059960048036038101906105949190613d21565b611240565b6040516105a69190613e20565b60405180910390f35b3480156105bb57600080fd5b506105c46112b1565b6040516105d19190613b8a565b60405180910390f35b3480156105e657600080fd5b5061060160048036038101906105fc9190613d21565b6112c8565b60405161060e9190613d5d565b60405180910390f35b610631600480360381019061062c9190613f3d565b61137a565b005b34801561063f57600080fd5b50610648611949565b6040516106559190613fdc565b60405180910390f35b34801561066a57600080fd5b5061068560048036038101906106809190613c03565b61196f565b6040516106929190613e20565b60405180910390f35b3480156106a757600080fd5b506106b0611a27565b005b3480156106be57600080fd5b506106c7611aaf565b6040516106d49190613d5d565b60405180910390f35b3480156106e957600080fd5b5061070460048036038101906106ff9190613d21565b611ad9565b60405161071191906140e1565b60405180910390f35b34801561072657600080fd5b5061072f611c27565b60405161073c9190613cc9565b60405180910390f35b34801561075157600080fd5b5061075a611cb9565b604051610767919061411e565b60405180910390f35b34801561077c57600080fd5b5061079760048036038101906107929190613d21565b611cdf565b6040516107a49190613e20565b60405180910390f35b3480156107b957600080fd5b506107d460048036038101906107cf9190614139565b611cf7565b005b3480156107e257600080fd5b506107fd60048036038101906107f891906142ae565b611e78565b005b34801561080b57600080fd5b50610814611eda565b6040516108219190613e20565b60405180910390f35b34801561083657600080fd5b5061083f611ee4565b60405161084c9190613e20565b60405180910390f35b34801561086157600080fd5b5061086a611eea565b6040516108779190613b8a565b60405180910390f35b34801561088c57600080fd5b506108a760048036038101906108a29190613d21565b611efd565b6040516108b49190613cc9565b60405180910390f35b3480156108c957600080fd5b506108e460048036038101906108df9190613d21565b611ffe565b6040516108fa9a99989796959493929190614331565b60405180910390f35b34801561090f57600080fd5b506109186120d4565b60405161092591906143ee565b60405180910390f35b34801561093a57600080fd5b5061095560048036038101906109509190614409565b6120fa565b6040516109629190613b8a565b60405180910390f35b34801561097757600080fd5b50610992600480360381019061098d9190613c03565b61218e565b005b3480156109a057600080fd5b506109a9612286565b6040516109b69190613e20565b60405180910390f35b3480156109cb57600080fd5b506109e660048036038101906109e19190613de4565b6122aa565b005b60007f780e9d63000000000000000000000000000000000000000000000000000000007bffffffffffffffffffffffffffffffffffffffffffffffffffffffff1916827bffffffffffffffffffffffffffffffffffffffffffffffffffffffff19161480610a5b5750610a5a82612343565b5b9050919050565b610a6a612425565b73ffffffffffffffffffffffffffffffffffffffff16610a88611aaf565b73ffffffffffffffffffffffffffffffffffffffff1614610ade576040517f08c379a0000000000000000000000000000000000000000000000000000000008152600401610ad590614495565b60405180910390fd5b80603360016101000a81548173ffffffffffffffffffffffffffffffffffffffff021916908373ffffffffffffffffffffffffffffffffffffffff16021790555050565b606060008054610b31906144e4565b80601f0160208091040260200160405190810160405280929190818152602001828054610b5d906144e4565b8015610baa5780601f10610b7f57610100808354040283529160200191610baa565b820191906000526020600020905b815481529060010190602001808311610b8d57829003601f168201915b5050505050905090565b6000610bbf8261242d565b610bfe576040517f08c379a0000000000000000000000000000000000000000000000000000000008152600401610bf590614588565b60405180910390fd5b6004600083815260200190815260200160002060009054906101000a900473ffffffffffffffffffffffffffffffffffffffff169050919050565b6000610c44826112c8565b90508073ffffffffffffffffffffffffffffffffffffffff168373ffffffffffffffffffffffffffffffffffffffff161415610cb5576040517f08c379a0000000000000000000000000000000000000000000000000000000008152600401610cac9061461a565b60405180910390fd5b8073ffffffffffffffffffffffffffffffffffffffff16610cd4612425565b73ffffffffffffffffffffffffffffffffffffffff161480610d035750610d0281610cfd612425565b6120fa565b5b610d42576040517f08c379a0000000000000000000000000000000000000000000000000000000008152600401610d39906146ac565b60405180910390fd5b610d4c8383612499565b505050565b610d59612425565b73ffffffffffffffffffffffffffffffffffffffff16610d77611aaf565b73ffffffffffffffffffffffffffffffffffffffff1614610dcd576040517f08c379a0000000000000000000000000000000000000000000000000000000008152600401610dc490614495565b60405180910390fd5b8015610de057610ddb612552565b610de9565b610de86125f5565b5b50565b6000600880549050905090565b603360019054906101000a900473ffffffffffffffffffffffffffffffffffffffff1673ffffffffffffffffffffffffffffffffffffffff16610e3a612425565b73ffffffffffffffffffffffffffffffffffffffff1614610ea657610e66610e60612425565b82612697565b610ea5576040517f08c379a0000000000000000000000000000000000000000000000000000000008152600401610e9c9061473e565b60405180910390fd5b5b610eb1838383612775565b505050565b6000600b548211610eca5760009050610f7a565b600560027f0000000000000000000000000000000000000000000000000000000000000000610ef9919061478d565b610f039190614816565b8211610f1b5769043c33c19375648000009050610f7a565b600560047f0000000000000000000000000000000000000000000000000000000000000000610f4a919061478d565b610f549190614816565b8211610f6c57690878678326eac90000009050610f7a565b6910f0cf064dd59200000090505b919050565b6000610f8a8361196f565b8210610fcb576040517f08c379a0000000000000000000000000000000000000000000000000000000008152600401610fc2906148b9565b60405180910390fd5b600660008473ffffffffffffffffffffffffffffffffffffffff1673ffffffffffffffffffffffffffffffffffffffff168152602001908152602001600020600083815260200190815260200160002054905092915050565b600f826012811061103457600080fd5b01818154811061104357600080fd5b9060005260206000209060209182820401919006915091509054906101000a900460ff1681565b611072612425565b73ffffffffffffffffffffffffffffffffffffffff16611090611aaf565b73ffffffffffffffffffffffffffffffffffffffff16146110e6576040517f08c379a00000000000000000000000000000000000000000000000000000000081526004016110dd90614495565b60405180910390fd5b80600b8190555050565b6021826012811061110057600080fd5b01818154811061110f57600080fd5b9060005260206000209060209182820401919006915091509054906101000a900460ff1681565b61113e612425565b73ffffffffffffffffffffffffffffffffffffffff1661115c611aaf565b73ffffffffffffffffffffffffffffffffffffffff16146111b2576040517f08c379a00000000000000000000000000000000000000000000000000000000081526004016111a990614495565b60405180910390fd5b6111ba611aaf565b73ffffffffffffffffffffffffffffffffffffffff166108fc479081150290604051600060405180830381858888f193505050501580156111ff573d6000803e3d6000fd5b50565b6000600b54905090565b61122783838360405180602001604052806000815250611e78565b505050565b600c60009054906101000a900461ffff1681565b600061124a610dec565b821061128b576040517f08c379a00000000000000000000000000000000000000000000000000000000081526004016112829061494b565b60405180910390fd5b6008828154811061129f5761129e61496b565b5b90600052602060002001549050919050565b6000600a60149054906101000a900460ff16905090565b6000806002600084815260200190815260200160002060009054906101000a900473ffffffffffffffffffffffffffffffffffffffff169050600073ffffffffffffffffffffffffffffffffffffffff168173ffffffffffffffffffffffffffffffffffffffff161415611371576040517f08c379a000000000000000000000000000000000000000000000000000000000815260040161136890614a0c565b60405180910390fd5b80915050919050565b611382612425565b73ffffffffffffffffffffffffffffffffffffffff163273ffffffffffffffffffffffffffffffffffffffff16146113ef576040517f08c379a00000000000000000000000000000000000000000000000000000000081526004016113e690614a78565b60405180910390fd5b7f000000000000000000000000000000000000000000000000000000000000000082600c60009054906101000a900461ffff1661ffff166114309190614a98565b1115611471576040517f08c379a000000000000000000000000000000000000000000000000000000000815260040161146890614b3a565b60405180910390fd5b60008211801561148357506113888211155b6114c2576040517f08c379a00000000000000000000000000000000000000000000000000000000081526004016114b990614ba6565b60405180910390fd5b600b54600c60009054906101000a900461ffff1661ffff16101561159c57600b5482600c60009054906101000a900461ffff1661ffff166115039190614a98565b1115611544576040517f08c379a000000000000000000000000000000000000000000000000000000000815260040161153b90614c12565b60405180910390fd5b346509184e72a00083611557919061478d565b14611597576040517f08c379a000000000000000000000000000000000000000000000000000000000815260040161158e90614c7e565b60405180910390fd5b6115aa565b600034146115a957600080fd5b5b6000808261160157600067ffffffffffffffff8111156115cd576115cc614183565b5b6040519080825280602002602001820160405280156115fb5781602001602082028036833780820191505090505b5061164b565b8367ffffffffffffffff81111561161b5761161a614183565b5b6040519080825280602002602001820160405280156116495781602001602082028036833780820191505090505b505b9050600080600090505b8581101561180457600c600081819054906101000a900461ffff168092919061167d90614c9e565b91906101000a81548161ffff021916908361ffff160217905550506116b5600c60009054906101000a900461ffff1661ffff166129d1565b91506116d5600c60009054906101000a900461ffff1661ffff1683612a17565b5060006116e183612bf0565b905085158061172357506116f3612425565b73ffffffffffffffffffffffffffffffffffffffff168173ffffffffffffffffffffffffffffffffffffffff1614155b1561174b5761174681600c60009054906101000a900461ffff1661ffff16612d63565b6117c6565b61178b603360019054906101000a900473ffffffffffffffffffffffffffffffffffffffff16600c60009054906101000a900461ffff1661ffff16612d63565b600c60009054906101000a900461ffff168483815181106117af576117ae61496b565b5b602002602001019061ffff16908161ffff16815250505b6117e3600c60009054906101000a900461ffff1661ffff16610eb6565b856117ee9190614a98565b94505080806117fc90614cc9565b915050611655565b5060008311156118a557603460009054906101000a900473ffffffffffffffffffffffffffffffffffffffff1673ffffffffffffffffffffffffffffffffffffffff16639dc29fac611854612425565b856040518363ffffffff1660e01b8152600401611872929190614d12565b600060405180830381600087803b15801561188c57600080fd5b505af11580156118a0573d6000803e3d6000fd5b505050505b831561194257603360019054906101000a900473ffffffffffffffffffffffffffffffffffffffff1673ffffffffffffffffffffffffffffffffffffffff1663fdf8569f6118f1612425565b846040518363ffffffff1660e01b815260040161190f929190614df9565b600060405180830381600087803b15801561192957600080fd5b505af115801561193d573d6000803e3d6000fd5b505050505b5050505050565b603460009054906101000a900473ffffffffffffffffffffffffffffffffffffffff1681565b60008073ffffffffffffffffffffffffffffffffffffffff168273ffffffffffffffffffffffffffffffffffffffff1614156119e0576040517f08c379a00000000000000000000000000000000000000000000000000000000081526004016119d790614e9b565b60405180910390fd5b600360008373ffffffffffffffffffffffffffffffffffffffff1673ffffffffffffffffffffffffffffffffffffffff168152602001908152602001600020549050919050565b611a2f612425565b73ffffffffffffffffffffffffffffffffffffffff16611a4d611aaf565b73ffffffffffffffffffffffffffffffffffffffff1614611aa3576040517f08c379a0000000000000000000000000000000000000000000000000000000008152600401611a9a90614495565b60405180910390fd5b611aad6000612d81565b565b6000600a60009054906101000a900473ffffffffffffffffffffffffffffffffffffffff16905090565b611ae1613a66565b600d6000838152602001908152602001600020604051806101400160405290816000820160009054906101000a900460ff161515151581526020016000820160019054906101000a900460ff1660ff1660ff1681526020016000820160029054906101000a900460ff1660ff1660ff1681526020016000820160039054906101000a900460ff1660ff1660ff1681526020016000820160049054906101000a900460ff1660ff1660ff1681526020016000820160059054906101000a900460ff1660ff1660ff1681526020016000820160069054906101000a900460ff1660ff1660ff1681526020016000820160079054906101000a900460ff1660ff1660ff1681526020016000820160089054906101000a900460ff1660ff1660ff1681526020016000820160099054906101000a900460ff1660ff1660ff16815250509050919050565b606060018054611c36906144e4565b80601f0160208091040260200160405190810160405280929190818152602001828054611c62906144e4565b8015611caf5780601f10611c8457610100808354040283529160200191611caf565b820191906000526020600020905b815481529060010190602001808311611c9257829003601f168201915b5050505050905090565b603360019054906101000a900473ffffffffffffffffffffffffffffffffffffffff1681565b600e6020528060005260406000206000915090505481565b611cff612425565b73ffffffffffffffffffffffffffffffffffffffff168273ffffffffffffffffffffffffffffffffffffffff161415611d6d576040517f08c379a0000000000000000000000000000000000000000000000000000000008152600401611d6490614f07565b60405180910390fd5b8060056000611d7a612425565b73ffffffffffffffffffffffffffffffffffffffff1673ffffffffffffffffffffffffffffffffffffffff16815260200190815260200160002060008473ffffffffffffffffffffffffffffffffffffffff1673ffffffffffffffffffffffffffffffffffffffff16815260200190815260200160002060006101000a81548160ff0219169083151502179055508173ffffffffffffffffffffffffffffffffffffffff16611e27612425565b73ffffffffffffffffffffffffffffffffffffffff167f17307eab39ab6107e8899845ad3d59bd9653f200f220920489ca2b5937696c3183604051611e6c9190613b8a565b60405180910390a35050565b611e89611e83612425565b83612697565b611ec8576040517f08c379a0000000000000000000000000000000000000000000000000000000008152600401611ebf9061473e565b60405180910390fd5b611ed484848484612e47565b50505050565b6509184e72a00081565b600b5481565b603360009054906101000a900460ff1681565b6060611f088261242d565b611f47576040517f08c379a0000000000000000000000000000000000000000000000000000000008152600401611f3e90614f99565b60405180910390fd5b603560009054906101000a900473ffffffffffffffffffffffffffffffffffffffff1673ffffffffffffffffffffffffffffffffffffffff1663c87b56dd836040518263ffffffff1660e01b8152600401611fa29190613e20565b60006040518083038186803b158015611fba57600080fd5b505afa158015611fce573d6000803e3d6000fd5b505050506040513d6000823e3d601f19601f82011682018060405250810190611ff7919061505a565b9050919050565b600d6020528060005260406000206000915090508060000160009054906101000a900460ff16908060000160019054906101000a900460ff16908060000160029054906101000a900460ff16908060000160039054906101000a900460ff16908060000160049054906101000a900460ff16908060000160059054906101000a900460ff16908060000160069054906101000a900460ff16908060000160079054906101000a900460ff16908060000160089054906101000a900460ff16908060000160099054906101000a900460ff1690508a565b603560009054906101000a900473ffffffffffffffffffffffffffffffffffffffff1681565b6000600560008473ffffffffffffffffffffffffffffffffffffffff1673ffffffffffffffffffffffffffffffffffffffff16815260200190815260200160002060008373ffffffffffffffffffffffffffffffffffffffff1673ffffffffffffffffffffffffffffffffffffffff16815260200190815260200160002060009054906101000a900460ff16905092915050565b612196612425565b73ffffffffffffffffffffffffffffffffffffffff166121b4611aaf565b73ffffffffffffffffffffffffffffffffffffffff161461220a576040517f08c379a000000000000000000000000000000000000000000000000000000000815260040161220190614495565b60405180910390fd5b600073ffffffffffffffffffffffffffffffffffffffff168173ffffffffffffffffffffffffffffffffffffffff16141561227a576040517f08c379a000000000000000000000000000000000000000000000000000000000815260040161227190615115565b60405180910390fd5b61228381612d81565b50565b7f000000000000000000000000000000000000000000000000000000000000000081565b6122b2612425565b73ffffffffffffffffffffffffffffffffffffffff166122d0611aaf565b73ffffffffffffffffffffffffffffffffffffffff1614612326576040517f08c379a000000000000000000000000000000000000000000000000000000000815260040161231d90614495565b60405180910390fd5b80603360006101000a81548160ff02191690831515021790555050565b60007f80ac58cd000000000000000000000000000000000000000000000000000000007bffffffffffffffffffffffffffffffffffffffffffffffffffffffff1916827bffffffffffffffffffffffffffffffffffffffffffffffffffffffff1916148061240e57507f5b5e139f000000000000000000000000000000000000000000000000000000007bffffffffffffffffffffffffffffffffffffffffffffffffffffffff1916827bffffffffffffffffffffffffffffffffffffffffffffffffffffffff1916145b8061241e575061241d82612ea3565b5b9050919050565b600033905090565b60008073ffffffffffffffffffffffffffffffffffffffff166002600084815260200190815260200160002060009054906101000a900473ffffffffffffffffffffffffffffffffffffffff1673ffffffffffffffffffffffffffffffffffffffff1614159050919050565b816004600083815260200190815260200160002060006101000a81548173ffffffffffffffffffffffffffffffffffffffff021916908373ffffffffffffffffffffffffffffffffffffffff160217905550808273ffffffffffffffffffffffffffffffffffffffff1661250c836112c8565b73ffffffffffffffffffffffffffffffffffffffff167f8c5be1e5ebec7d5bd14f71427d1e84f3dd0314c0f7b2291e5b200ac8c7c3b92560405160405180910390a45050565b61255a6112b1565b1561259a576040517f08c379a000000000000000000000000000000000000000000000000000000000815260040161259190615181565b60405180910390fd5b6001600a60146101000a81548160ff0219169083151502179055507f62e78cea01bee320cd4e420270b5ea74000d11b0c9f74754ebdbfc544b05a2586125de612425565b6040516125eb9190613d5d565b60405180910390a1565b6125fd6112b1565b61263c576040517f08c379a0000000000000000000000000000000000000000000000000000000008152600401612633906151ed565b60405180910390fd5b6000600a60146101000a81548160ff0219169083151502179055507f5db9ee0a495bf2e6ff9c91a7834c1ba4fdd244a5e8aa4e537bd38aeae4b073aa612680612425565b60405161268d9190613d5d565b60405180910390a1565b60006126a28261242d565b6126e1576040517f08c379a00000000000000000000000000000000000000000000000000000000081526004016126d89061527f565b60405180910390fd5b60006126ec836112c8565b90508073ffffffffffffffffffffffffffffffffffffffff168473ffffffffffffffffffffffffffffffffffffffff16148061275b57508373ffffffffffffffffffffffffffffffffffffffff1661274384610bb4565b73ffffffffffffffffffffffffffffffffffffffff16145b8061276c575061276b81856120fa565b5b91505092915050565b8273ffffffffffffffffffffffffffffffffffffffff16612795826112c8565b73ffffffffffffffffffffffffffffffffffffffff16146127eb576040517f08c379a00000000000000000000000000000000000000000000000000000000081526004016127e290615311565b60405180910390fd5b600073ffffffffffffffffffffffffffffffffffffffff168273ffffffffffffffffffffffffffffffffffffffff16141561285b576040517f08c379a0000000000000000000000000000000000000000000000000000000008152600401612852906153a3565b60405180910390fd5b612866838383612f0d565b612871600082612499565b6001600360008573ffffffffffffffffffffffffffffffffffffffff1673ffffffffffffffffffffffffffffffffffffffff16815260200190815260200160002060008282546128c191906153c3565b925050819055506001600360008473ffffffffffffffffffffffffffffffffffffffff1673ffffffffffffffffffffffffffffffffffffffff16815260200190815260200160002060008282546129189190614a98565b92505081905550816002600083815260200190815260200160002060006101000a81548173ffffffffffffffffffffffffffffffffffffffff021916908373ffffffffffffffffffffffffffffffffffffffff160217905550808273ffffffffffffffffffffffffffffffffffffffff168473ffffffffffffffffffffffffffffffffffffffff167fddf252ad1be2c89b69c2b068fc378daa952ba7f163c4a11628f55a4df523b3ef60405160405180910390a4505050565b6000326001436129e191906153c3565b4042846040516020016129f7949392919061548b565b6040516020818303038152906040528051906020012060001c9050919050565b612a1f613a66565b612a2882613021565b90506000600e6000612a398461322e565b8152602001908152602001600020541415612bd55780600d600085815260200190815260200160002060008201518160000160006101000a81548160ff02191690831515021790555060208201518160000160016101000a81548160ff021916908360ff16021790555060408201518160000160026101000a81548160ff021916908360ff16021790555060608201518160000160036101000a81548160ff021916908360ff16021790555060808201518160000160046101000a81548160ff021916908360ff16021790555060a08201518160000160056101000a81548160ff021916908360ff16021790555060c08201518160000160066101000a81548160ff021916908360ff16021790555060e08201518160000160076101000a81548160ff021916908360ff1602179055506101008201518160000160086101000a81548160ff021916908360ff1602179055506101208201518160000160096101000a81548160ff021916908360ff16021790555090505082600e6000612bbe8461322e565b815260200190815260200160002081905550612bea565b612be783612be2846129d1565b612a17565b90505b92915050565b6000600b54600c60009054906101000a900461ffff1661ffff16111580612c2857506000600a60f584901c612c2591906154d9565b14155b15612c3c57612c35612425565b9050612d5e565b6000603360019054906101000a900473ffffffffffffffffffffffffffffffffffffffff1673ffffffffffffffffffffffffffffffffffffffff1663fb59dfa6609085901c6040518263ffffffff1660e01b8152600401612c9d9190613e20565b60206040518083038186803b158015612cb557600080fd5b505afa158015612cc9573d6000803e3d6000fd5b505050506040513d601f19601f82011682018060405250810190612ced919061551f565b9050600073ffffffffffffffffffffffffffffffffffffffff168173ffffffffffffffffffffffffffffffffffffffff161415612d3457612d2c612425565b915050612d5e565b603360009054906101000a900460ff1615612d525780915050612d5e565b612d5a612425565b9150505b919050565b612d7d828260405180602001604052806000815250613299565b5050565b6000600a60009054906101000a900473ffffffffffffffffffffffffffffffffffffffff16905081600a60006101000a81548173ffffffffffffffffffffffffffffffffffffffff021916908373ffffffffffffffffffffffffffffffffffffffff1602179055508173ffffffffffffffffffffffffffffffffffffffff168173ffffffffffffffffffffffffffffffffffffffff167f8be0079c531659141344cd1fd0a4f28419497f9722a3daafe3b4186f6b6457e060405160405180910390a35050565b612e52848484612775565b612e5e848484846132f4565b612e9d576040517f08c379a0000000000000000000000000000000000000000000000000000000008152600401612e94906155be565b60405180910390fd5b50505050565b60007f01ffc9a7000000000000000000000000000000000000000000000000000000007bffffffffffffffffffffffffffffffffffffffffffffffffffffffff1916827bffffffffffffffffffffffffffffffffffffffffffffffffffffffff1916149050919050565b612f1883838361348b565b600073ffffffffffffffffffffffffffffffffffffffff168373ffffffffffffffffffffffffffffffffffffffff161415612f5b57612f5681613490565b612f9a565b8173ffffffffffffffffffffffffffffffffffffffff168373ffffffffffffffffffffffffffffffffffffffff1614612f9957612f9883826134d9565b5b5b600073ffffffffffffffffffffffffffffffffffffffff168273ffffffffffffffffffffffffffffffffffffffff161415612fdd57612fd881613646565b61301c565b8273ffffffffffffffffffffffffffffffffffffffff168273ffffffffffffffffffffffffffffffffffffffff161461301b5761301a8282613717565b5b5b505050565b613029613a66565b6000600a61ffff841661303c91906154d9565b14158160000190151590811515815250506000816000015161305f576009613062565b60005b9050601083901c925061308561ffff841682600061308091906155de565b613796565b826020019060ff16908160ff1681525050601083901c92506130b761ffff84168260016130b291906155de565b613796565b826040019060ff16908160ff1681525050601083901c92506130e961ffff84168260026130e491906155de565b613796565b826060019060ff16908160ff1681525050601083901c925061311b61ffff841682600361311691906155de565b613796565b826080019060ff16908160ff1681525050601083901c925061314d61ffff841682600461314891906155de565b613796565b8260a0019060ff16908160ff1681525050601083901c925061317f61ffff841682600561317a91906155de565b613796565b8260c0019060ff16908160ff1681525050601083901c92506131b161ffff84168260066131ac91906155de565b613796565b8260e0019060ff16908160ff1681525050601083901c92506131e361ffff84168260076131de91906155de565b613796565b82610100019060ff16908160ff1681525050601083901c925061321661ffff841682600861321191906155de565b613796565b82610120019060ff16908160ff168152505050919050565b600081600001518260200151836040015184608001518560e001518660c00151876060015188610100015189610120015160405160200161327799989796959493929190615674565b60405160208183030381529060405261328f90615754565b60001c9050919050565b6132a38383613885565b6132b060008484846132f4565b6132ef576040517f08c379a00000000000000000000000000000000000000000000000000000000081526004016132e6906155be565b60405180910390fd5b505050565b60006133158473ffffffffffffffffffffffffffffffffffffffff16613a53565b1561347e578373ffffffffffffffffffffffffffffffffffffffff1663150b7a0261333e612425565b8786866040518563ffffffff1660e01b81526004016133609493929190615805565b602060405180830381600087803b15801561337a57600080fd5b505af19250505080156133ab57506040513d601f19601f820116820180604052508101906133a89190615866565b60015b61342e573d80600081146133db576040519150601f19603f3d011682016040523d82523d6000602084013e6133e0565b606091505b50600081511415613426576040517f08c379a000000000000000000000000000000000000000000000000000000000815260040161341d906155be565b60405180910390fd5b805181602001fd5b63150b7a0260e01b7bffffffffffffffffffffffffffffffffffffffffffffffffffffffff1916817bffffffffffffffffffffffffffffffffffffffffffffffffffffffff191614915050613483565b600190505b949350505050565b505050565b6008805490506009600083815260200190815260200160002081905550600881908060018154018082558091505060019003906000526020600020016000909190919091505550565b600060016134e68461196f565b6134f091906153c3565b90506000600760008481526020019081526020016000205490508181146135d5576000600660008673ffffffffffffffffffffffffffffffffffffffff1673ffffffffffffffffffffffffffffffffffffffff168152602001908152602001600020600084815260200190815260200160002054905080600660008773ffffffffffffffffffffffffffffffffffffffff1673ffffffffffffffffffffffffffffffffffffffff168152602001908152602001600020600084815260200190815260200160002081905550816007600083815260200190815260200160002081905550505b6007600084815260200190815260200160002060009055600660008573ffffffffffffffffffffffffffffffffffffffff1673ffffffffffffffffffffffffffffffffffffffff16815260200190815260200160002060008381526020019081526020016000206000905550505050565b6000600160088054905061365a91906153c3565b905060006009600084815260200190815260200160002054905060006008838154811061368a5761368961496b565b5b9060005260206000200154905080600883815481106136ac576136ab61496b565b5b9060005260206000200181905550816009600083815260200190815260200160002081905550600960008581526020019081526020016000206000905560088054806136fb576136fa615893565b5b6001900381819060005260206000200160009055905550505050565b60006137228361196f565b905081600660008573ffffffffffffffffffffffffffffffffffffffff1673ffffffffffffffffffffffffffffffffffffffff168152602001908152602001600020600083815260200190815260200160002081905550806007600084815260200190815260200160002081905550505050565b600080600f8360ff16601281106137b0576137af61496b565b5b0180549050846137c091906158c2565b9050600f8360ff16601281106137d9576137d861496b565b5b018160ff16815481106137ef576137ee61496b565b5b90600052602060002090602091828204019190069054906101000a900460ff1660ff1660088561ffff16901c61ffff16101561382e578091505061387f565b60218360ff16601281106138455761384461496b565b5b018160ff168154811061385b5761385a61496b565b5b90600052602060002090602091828204019190069054906101000a900460ff169150505b92915050565b600073ffffffffffffffffffffffffffffffffffffffff168273ffffffffffffffffffffffffffffffffffffffff1614156138f5576040517f08c379a00000000000000000000000000000000000000000000000000000000081526004016138ec9061593f565b60405180910390fd5b6138fe8161242d565b1561393e576040517f08c379a0000000000000000000000000000000000000000000000000000000008152600401613935906159ab565b60405180910390fd5b61394a60008383612f0d565b6001600360008473ffffffffffffffffffffffffffffffffffffffff1673ffffffffffffffffffffffffffffffffffffffff168152602001908152602001600020600082825461399a9190614a98565b92505081905550816002600083815260200190815260200160002060006101000a81548173ffffffffffffffffffffffffffffffffffffffff021916908373ffffffffffffffffffffffffffffffffffffffff160217905550808273ffffffffffffffffffffffffffffffffffffffff16600073ffffffffffffffffffffffffffffffffffffffff167fddf252ad1be2c89b69c2b068fc378daa952ba7f163c4a11628f55a4df523b3ef60405160405180910390a45050565b600080823b905060008111915050919050565b604051806101400160405280600015158152602001600060ff168152602001600060ff168152602001600060ff168152602001600060ff168152602001600060ff168152602001600060ff168152602001600060ff168152602001600060ff168152602001600060ff1681525090565b6000604051905090565b600080fd5b600080fd5b60007fffffffff0000000000000000000000000000000000000000000000000000000082169050919050565b613b1f81613aea565b8114613b2a57600080fd5b50565b600081359050613b3c81613b16565b92915050565b600060208284031215613b5857613b57613ae0565b5b6000613b6684828501613b2d565b91505092915050565b60008115159050919050565b613b8481613b6f565b82525050565b6000602082019050613b9f6000830184613b7b565b92915050565b600073ffffffffffffffffffffffffffffffffffffffff82169050919050565b6000613bd082613ba5565b9050919050565b613be081613bc5565b8114613beb57600080fd5b50565b600081359050613bfd81613bd7565b92915050565b600060208284031215613c1957613c18613ae0565b5b6000613c2784828501613bee565b91505092915050565b600081519050919050565b600082825260208201905092915050565b60005b83811015613c6a578082015181840152602081019050613c4f565b83811115613c79576000848401525b50505050565b6000601f19601f8301169050919050565b6000613c9b82613c30565b613ca58185613c3b565b9350613cb5818560208601613c4c565b613cbe81613c7f565b840191505092915050565b60006020820190508181036000830152613ce38184613c90565b905092915050565b6000819050919050565b613cfe81613ceb565b8114613d0957600080fd5b50565b600081359050613d1b81613cf5565b92915050565b600060208284031215613d3757613d36613ae0565b5b6000613d4584828501613d0c565b91505092915050565b613d5781613bc5565b82525050565b6000602082019050613d726000830184613d4e565b92915050565b60008060408385031215613d8f57613d8e613ae0565b5b6000613d9d85828601613bee565b9250506020613dae85828601613d0c565b9150509250929050565b613dc181613b6f565b8114613dcc57600080fd5b50565b600081359050613dde81613db8565b92915050565b600060208284031215613dfa57613df9613ae0565b5b6000613e0884828501613dcf565b91505092915050565b613e1a81613ceb565b82525050565b6000602082019050613e356000830184613e11565b92915050565b600080600060608486031215613e5457613e53613ae0565b5b6000613e6286828701613bee565b9350506020613e7386828701613bee565b9250506040613e8486828701613d0c565b9150509250925092565b60008060408385031215613ea557613ea4613ae0565b5b6000613eb385828601613d0c565b9250506020613ec485828601613d0c565b9150509250929050565b600060ff82169050919050565b613ee481613ece565b82525050565b6000602082019050613eff6000830184613edb565b92915050565b600061ffff82169050919050565b613f1c81613f05565b82525050565b6000602082019050613f376000830184613f13565b92915050565b60008060408385031215613f5457613f53613ae0565b5b6000613f6285828601613d0c565b9250506020613f7385828601613dcf565b9150509250929050565b6000819050919050565b6000613fa2613f9d613f9884613ba5565b613f7d565b613ba5565b9050919050565b6000613fb482613f87565b9050919050565b6000613fc682613fa9565b9050919050565b613fd681613fbb565b82525050565b6000602082019050613ff16000830184613fcd565b92915050565b61400081613b6f565b82525050565b61400f81613ece565b82525050565b6101408201600082015161402c6000850182613ff7565b50602082015161403f6020850182614006565b5060408201516140526040850182614006565b5060608201516140656060850182614006565b5060808201516140786080850182614006565b5060a082015161408b60a0850182614006565b5060c082015161409e60c0850182614006565b5060e08201516140b160e0850182614006565b506101008201516140c6610100850182614006565b506101208201516140db610120850182614006565b50505050565b6000610140820190506140f76000830184614015565b92915050565b600061410882613fa9565b9050919050565b614118816140fd565b82525050565b6000602082019050614133600083018461410f565b92915050565b600080604083850312156141505761414f613ae0565b5b600061415e85828601613bee565b925050602061416f85828601613dcf565b9150509250929050565b600080fd5b600080fd5b7f4e487b7100000000000000000000000000000000000000000000000000000000600052604160045260246000fd5b6141bb82613c7f565b810181811067ffffffffffffffff821117156141da576141d9614183565b5b80604052505050565b60006141ed613ad6565b90506141f982826141b2565b919050565b600067ffffffffffffffff82111561421957614218614183565b5b61422282613c7f565b9050602081019050919050565b82818337600083830152505050565b600061425161424c846141fe565b6141e3565b90508281526020810184848401111561426d5761426c61417e565b5b61427884828561422f565b509392505050565b600082601f83011261429557614294614179565b5b81356142a584826020860161423e565b91505092915050565b600080600080608085870312156142c8576142c7613ae0565b5b60006142d687828801613bee565b94505060206142e787828801613bee565b93505060406142f887828801613d0c565b925050606085013567ffffffffffffffff81111561431957614318613ae5565b5b61432587828801614280565b91505092959194509250565b600061014082019050614347600083018d613b7b565b614354602083018c613edb565b614361604083018b613edb565b61436e606083018a613edb565b61437b6080830189613edb565b61438860a0830188613edb565b61439560c0830187613edb565b6143a260e0830186613edb565b6143b0610100830185613edb565b6143be610120830184613edb565b9b9a5050505050505050505050565b60006143d882613fa9565b9050919050565b6143e8816143cd565b82525050565b600060208201905061440360008301846143df565b92915050565b600080604083850312156144205761441f613ae0565b5b600061442e85828601613bee565b925050602061443f85828601613bee565b9150509250929050565b7f4f776e61626c653a2063616c6c6572206973206e6f7420746865206f776e6572600082015250565b600061447f602083613c3b565b915061448a82614449565b602082019050919050565b600060208201905081810360008301526144ae81614472565b9050919050565b7f4e487b7100000000000000000000000000000000000000000000000000000000600052602260045260246000fd5b600060028204905060018216806144fc57607f821691505b602082108114156145105761450f6144b5565b5b50919050565b7f4552433732313a20617070726f76656420717565727920666f72206e6f6e657860008201527f697374656e7420746f6b656e0000000000000000000000000000000000000000602082015250565b6000614572602c83613c3b565b915061457d82614516565b604082019050919050565b600060208201905081810360008301526145a181614565565b9050919050565b7f4552433732313a20617070726f76616c20746f2063757272656e74206f776e6560008201527f7200000000000000000000000000000000000000000000000000000000000000602082015250565b6000614604602183613c3b565b915061460f826145a8565b604082019050919050565b60006020820190508181036000830152614633816145f7565b9050919050565b7f4552433732313a20617070726f76652063616c6c6572206973206e6f74206f7760008201527f6e6572206e6f7220617070726f76656420666f7220616c6c0000000000000000602082015250565b6000614696603883613c3b565b91506146a18261463a565b604082019050919050565b600060208201905081810360008301526146c581614689565b9050919050565b7f4552433732313a207472616e736665722063616c6c6572206973206e6f74206f60008201527f776e6572206e6f7220617070726f766564000000000000000000000000000000602082015250565b6000614728603183613c3b565b9150614733826146cc565b604082019050919050565b600060208201905081810360008301526147578161471b565b9050919050565b7f4e487b7100000000000000000000000000000000000000000000000000000000600052601160045260246000fd5b600061479882613ceb565b91506147a383613ceb565b9250817fffffffffffffffffffffffffffffffffffffffffffffffffffffffffffffffff04831182151516156147dc576147db61475e565b5b828202905092915050565b7f4e487b7100000000000000000000000000000000000000000000000000000000600052601260045260246000fd5b600061482182613ceb565b915061482c83613ceb565b92508261483c5761483b6147e7565b5b828204905092915050565b7f455243373231456e756d657261626c653a206f776e657220696e646578206f7560008201527f74206f6620626f756e6473000000000000000000000000000000000000000000602082015250565b60006148a3602b83613c3b565b91506148ae82614847565b604082019050919050565b600060208201905081810360008301526148d281614896565b9050919050565b7f455243373231456e756d657261626c653a20676c6f62616c20696e646578206f60008201527f7574206f6620626f756e64730000000000000000000000000000000000000000602082015250565b6000614935602c83613c3b565b9150614940826148d9565b604082019050919050565b6000602082019050818103600083015261496481614928565b9050919050565b7f4e487b7100000000000000000000000000000000000000000000000000000000600052603260045260246000fd5b7f4552433732313a206f776e657220717565727920666f72206e6f6e657869737460008201527f656e7420746f6b656e0000000000000000000000000000000000000000000000602082015250565b60006149f6602983613c3b565b9150614a018261499a565b604082019050919050565b60006020820190508181036000830152614a25816149e9565b9050919050565b7f4f6e6c7920454f41000000000000000000000000000000000000000000000000600082015250565b6000614a62600883613c3b565b9150614a6d82614a2c565b602082019050919050565b60006020820190508181036000830152614a9181614a55565b9050919050565b6000614aa382613ceb565b9150614aae83613ceb565b9250827fffffffffffffffffffffffffffffffffffffffffffffffffffffffffffffffff03821115614ae357614ae261475e565b5b828201905092915050565b7f416c6c20746f6b656e73206d696e746564000000000000000000000000000000600082015250565b6000614b24601183613c3b565b9150614b2f82614aee565b602082019050919050565b60006020820190508181036000830152614b5381614b17565b9050919050565b7f496e76616c6964206d696e7420616d6f756e7400000000000000000000000000600082015250565b6000614b90601383613c3b565b9150614b9b82614b5a565b602082019050919050565b60006020820190508181036000830152614bbf81614b83565b9050919050565b7f416c6c20746f6b656e73206f6e2d73616c6520616c726561647920736f6c6400600082015250565b6000614bfc601f83613c3b565b9150614c0782614bc6565b602082019050919050565b60006020820190508181036000830152614c2b81614bef565b9050919050565b7f496e76616c6964207061796d656e7420616d6f756e7400000000000000000000600082015250565b6000614c68601683613c3b565b9150614c7382614c32565b602082019050919050565b60006020820190508181036000830152614c9781614c5b565b9050919050565b6000614ca982613f05565b915061ffff821415614cbe57614cbd61475e565b5b600182019050919050565b6000614cd482613ceb565b91507fffffffffffffffffffffffffffffffffffffffffffffffffffffffffffffffff821415614d0757614d0661475e565b5b600182019050919050565b6000604082019050614d276000830185613d4e565b614d346020830184613e11565b9392505050565b600081519050919050565b600082825260208201905092915050565b6000819050602082019050919050565b614d7081613f05565b82525050565b6000614d828383614d67565b60208301905092915050565b6000602082019050919050565b6000614da682614d3b565b614db08185614d46565b9350614dbb83614d57565b8060005b83811015614dec578151614dd38882614d76565b9750614dde83614d8e565b925050600181019050614dbf565b5085935050505092915050565b6000604082019050614e0e6000830185613d4e565b8181036020830152614e208184614d9b565b90509392505050565b7f4552433732313a2062616c616e636520717565727920666f7220746865207a6560008201527f726f206164647265737300000000000000000000000000000000000000000000602082015250565b6000614e85602a83613c3b565b9150614e9082614e29565b604082019050919050565b60006020820190508181036000830152614eb481614e78565b9050919050565b7f4552433732313a20617070726f766520746f2063616c6c657200000000000000600082015250565b6000614ef1601983613c3b565b9150614efc82614ebb565b602082019050919050565b60006020820190508181036000830152614f2081614ee4565b9050919050565b7f4552433732314d657461646174613a2055524920717565727920666f72206e6f60008201527f6e6578697374656e7420746f6b656e0000000000000000000000000000000000602082015250565b6000614f83602f83613c3b565b9150614f8e82614f27565b604082019050919050565b60006020820190508181036000830152614fb281614f76565b9050919050565b600067ffffffffffffffff821115614fd457614fd3614183565b5b614fdd82613c7f565b9050602081019050919050565b6000614ffd614ff884614fb9565b6141e3565b9050828152602081018484840111156150195761501861417e565b5b615024848285613c4c565b509392505050565b600082601f83011261504157615040614179565b5b8151615051848260208601614fea565b91505092915050565b6000602082840312156150705761506f613ae0565b5b600082015167ffffffffffffffff81111561508e5761508d613ae5565b5b61509a8482850161502c565b91505092915050565b7f4f776e61626c653a206e6577206f776e657220697320746865207a65726f206160008201527f6464726573730000000000000000000000000000000000000000000000000000602082015250565b60006150ff602683613c3b565b915061510a826150a3565b604082019050919050565b6000602082019050818103600083015261512e816150f2565b9050919050565b7f5061757361626c653a2070617573656400000000000000000000000000000000600082015250565b600061516b601083613c3b565b915061517682615135565b602082019050919050565b6000602082019050818103600083015261519a8161515e565b9050919050565b7f5061757361626c653a206e6f7420706175736564000000000000000000000000600082015250565b60006151d7601483613c3b565b91506151e2826151a1565b602082019050919050565b60006020820190508181036000830152615206816151ca565b9050919050565b7f4552433732313a206f70657261746f7220717565727920666f72206e6f6e657860008201527f697374656e7420746f6b656e0000000000000000000000000000000000000000602082015250565b6000615269602c83613c3b565b91506152748261520d565b604082019050919050565b600060208201905081810360008301526152988161525c565b9050919050565b7f4552433732313a207472616e73666572206f6620746f6b656e2074686174206960008201527f73206e6f74206f776e0000000000000000000000000000000000000000000000602082015250565b60006152fb602983613c3b565b91506153068261529f565b604082019050919050565b6000602082019050818103600083015261532a816152ee565b9050919050565b7f4552433732313a207472616e7366657220746f20746865207a65726f2061646460008201527f7265737300000000000000000000000000000000000000000000000000000000602082015250565b600061538d602483613c3b565b915061539882615331565b604082019050919050565b600060208201905081810360008301526153bc81615380565b9050919050565b60006153ce82613ceb565b91506153d983613ceb565b9250828210156153ec576153eb61475e565b5b828203905092915050565b60008160601b9050919050565b600061540f826153f7565b9050919050565b600061542182615404565b9050919050565b61543961543482613bc5565b615416565b82525050565b6000819050919050565b6000819050919050565b61546461545f8261543f565b615449565b82525050565b6000819050919050565b61548561548082613ceb565b61546a565b82525050565b60006154978287615428565b6014820191506154a78286615453565b6020820191506154b78285615474565b6020820191506154c78284615474565b60208201915081905095945050505050565b60006154e482613ceb565b91506154ef83613ceb565b9250826154ff576154fe6147e7565b5b828206905092915050565b60008151905061551981613bd7565b92915050565b60006020828403121561553557615534613ae0565b5b60006155438482850161550a565b91505092915050565b7f4552433732313a207472616e7366657220746f206e6f6e20455243373231526560008201527f63656976657220696d706c656d656e7465720000000000000000000000000000602082015250565b60006155a8603283613c3b565b91506155b38261554c565b604082019050919050565b600060208201905081810360008301526155d78161559b565b9050919050565b60006155e982613ece565b91506155f483613ece565b92508260ff0382111561560a5761560961475e565b5b828201905092915050565b60008160f81b9050919050565b600061562d82615615565b9050919050565b600061563f82615622565b9050919050565b61565761565282613b6f565b615634565b82525050565b61566e61566982613ece565b615622565b82525050565b6000615680828c615646565b600182019150615690828b61565d565b6001820191506156a0828a61565d565b6001820191506156b0828961565d565b6001820191506156c0828861565d565b6001820191506156d0828761565d565b6001820191506156e0828661565d565b6001820191506156f0828561565d565b600182019150615700828461565d565b6001820191508190509a9950505050505050505050565b600081519050919050565b6000819050602082019050919050565b600061573e825161543f565b80915050919050565b600082821b905092915050565b600061575f82615717565b8261576984615722565b905061577481615732565b925060208210156157b4576157af7fffffffffffffffffffffffffffffffffffffffffffffffffffffffffffffffff83602003600802615747565b831692505b5050919050565b600082825260208201905092915050565b60006157d782615717565b6157e181856157bb565b93506157f1818560208601613c4c565b6157fa81613c7f565b840191505092915050565b600060808201905061581a6000830187613d4e565b6158276020830186613d4e565b6158346040830185613e11565b818103606083015261584681846157cc565b905095945050505050565b60008151905061586081613b16565b92915050565b60006020828403121561587c5761587b613ae0565b5b600061588a84828501615851565b91505092915050565b7f4e487b7100000000000000000000000000000000000000000000000000000000600052603160045260246000fd5b60006158cd82613ece565b91506158d883613ece565b9250826158e8576158e76147e7565b5b828206905092915050565b7f4552433732313a206d696e7420746f20746865207a65726f2061646472657373600082015250565b6000615929602083613c3b565b9150615934826158f3565b602082019050919050565b600060208201905081810360008301526159588161591c565b9050919050565b7f4552433732313a20746f6b656e20616c7265616479206d696e74656400000000600082015250565b6000615995601c83613c3b565b91506159a08261595f565b602082019050919050565b600060208201905081810360008301526159c481615988565b905091905056fea264697066735822122056d6f9d7b7dcfbd24528f89ec319bd4e06c4fef1fe04f8f4792b55f990aa76aa64736f6c63430008090033",
  "linkReferences": {},
  "deployedLinkReferences": {}
}