{
  "_format": "hh-sol-artifact-1",
  "contractName": "Traits",
  "sourceName": "contracts/Traits.sol",
  "abi": [
    {
      "anonymous": false,
      "inputs": [
        {
          "indexed": true,
          "internalType": "address",
          "name": "previousOwner",
          "type": "address"
        },
        {
          "indexed": true,
          "internalType": "address",
          "name": "newOwner",
          "type": "address"
        }
      ],
      "name": "OwnershipTransferred",
      "type": "event"
    },
    {
      "inputs": [
        {
          "internalType": "uint256",
          "name": "tokenId",
          "type": "uint256"
        }
      ],
      "name": "compileAttributes",
      "outputs": [
        {
          "internalType": "string",
          "name": "",
          "type": "string"
        }
      ],
      "stateMutability": "view",
      "type": "function"
    },
    {
      "inputs": [
        {
          "internalType": "uint256",
          "name": "tokenId",
          "type": "uint256"
        }
      ],
      "name": "drawSVG",
      "outputs": [
        {
          "internalType": "string",
          "name": "",
          "type": "string"
        }
      ],
      "stateMutability": "view",
      "type": "function"
    },
    {
      "inputs": [],
      "name": "god",
      "outputs": [
        {
          "internalType": "contract IGod",
          "name": "",
          "type": "address"
        }
      ],
      "stateMutability": "view",
      "type": "function"
    },
    {
      "inputs": [],
      "name": "owner",
      "outputs": [
        {
          "internalType": "address",
          "name": "",
          "type": "address"
        }
      ],
      "stateMutability": "view",
      "type": "function"
    },
    {
      "inputs": [],
      "name": "renounceOwnership",
      "outputs": [],
      "stateMutability": "nonpayable",
      "type": "function"
    },
    {
      "inputs": [
        {
          "internalType": "address",
          "name": "_god",
          "type": "address"
        }
      ],
      "name": "setGod",
      "outputs": [],
      "stateMutability": "nonpayable",
      "type": "function"
    },
    {
      "inputs": [
        {
          "internalType": "uint256",
          "name": "tokenId",
          "type": "uint256"
        }
      ],
      "name": "tokenURI",
      "outputs": [
        {
          "internalType": "string",
          "name": "",
          "type": "string"
        }
      ],
      "stateMutability": "view",
      "type": "function"
    },
    {
      "inputs": [
        {
          "internalType": "uint8",
          "name": "",
          "type": "uint8"
        },
        {
          "internalType": "uint8",
          "name": "",
          "type": "uint8"
        }
      ],
      "name": "traitData",
      "outputs": [
        {
          "internalType": "string",
          "name": "name",
          "type": "string"
        },
        {
          "internalType": "string",
          "name": "png",
          "type": "string"
        }
      ],
      "stateMutability": "view",
      "type": "function"
    },
    {
      "inputs": [
        {
          "internalType": "address",
          "name": "newOwner",
          "type": "address"
        }
      ],
      "name": "transferOwnership",
      "outputs": [],
      "stateMutability": "nonpayable",
      "type": "function"
    },
    {
      "inputs": [
        {
          "internalType": "uint8",
          "name": "traitType",
          "type": "uint8"
        },
        {
          "internalType": "uint8[]",
          "name": "traitIds",
          "type": "uint8[]"
        },
        {
          "components": [
            {
              "internalType": "string",
              "name": "name",
              "type": "string"
            },
            {
              "internalType": "string",
              "name": "png",
              "type": "string"
            }
          ],
          "internalType": "struct Traits.Trait[]",
          "name": "traits",
          "type": "tuple[]"
        }
      ],
      "name": "uploadTraits",
      "outputs": [],
      "stateMutability": "nonpayable",
      "type": "function"
    }
  ],
  "bytecode": "0x60806040526040518061012001604052806040518060400160405280600481526020017f546f6e650000000000000000000000000000000000000000000000000000000081525081526020016040518060400160405280600481526020017f486561640000000000000000000000000000000000000000000000000000000081525081526020016040518060400160405280600781526020017f436c6f746865730000000000000000000000000000000000000000000000000081525081526020016040518060400160405280600481526020017f457965730000000000000000000000000000000000000000000000000000000081525081526020016040518060400160405280600481526020017f4e6f73650000000000000000000000000000000000000000000000000000000081525081526020016040518060400160405280600581526020017f426561726400000000000000000000000000000000000000000000000000000081525081526020016040518060400160405280600581526020017f4d6f75746800000000000000000000000000000000000000000000000000000081525081526020016040518060400160405280600481526020017f466565740000000000000000000000000000000000000000000000000000000081525081526020016040518060400160405280600881526020017f446976696e69747900000000000000000000000000000000000000000000000081525081525060019060096200023392919062000912565b5060405180608001604052806040518060400160405280600181526020017f380000000000000000000000000000000000000000000000000000000000000081525081526020016040518060400160405280600181526020017f370000000000000000000000000000000000000000000000000000000000000081525081526020016040518060400160405280600181526020017f360000000000000000000000000000000000000000000000000000000000000081525081526020016040518060400160405280600181526020017f3500000000000000000000000000000000000000000000000000000000000000815250815250600b9060046200033b9291906200096c565b506040518061014001604052806040518060400160405280600681526020017f653061613365000000000000000000000000000000000000000000000000000081525081526020016040518060400160405280600681526020017f303037396330000000000000000000000000000000000000000000000000000081525081526020016040518060400160405280600681526020017f343961623831000000000000000000000000000000000000000000000000000081525081526020016040518060400160405280600681526020017f616136366363000000000000000000000000000000000000000000000000000081525081526020016040518060400160405280600681526020017f303062616261000000000000000000000000000000000000000000000000000081525081526020016040518060400160405280600681526020017f636630303030000000000000000000000000000000000000000000000000000081525081526020016040518060400160405280600681526020017f613935623065000000000000000000000000000000000000000000000000000081525081526020016040518060400160405280600681526020017f616135353261000000000000000000000000000000000000000000000000000081525081526020016040518060400160405280600681526020017f396139613961000000000000000000000000000000000000000000000000000081525081526020016040518060400160405280600681526020017f6661663065360000000000000000000000000000000000000000000000000000815250815250601090600a620005a6929190620009c6565b506040518061014001604052806040518060400160405280600681526020017f623838613434000000000000000000000000000000000000000000000000000081525081526020016040518060400160405280600681526020017f303439636462000000000000000000000000000000000000000000000000000081525081526020016040518060400160405280600681526020017f333938353634000000000000000000000000000000000000000000000000000081525081526020016040518060400160405280600681526020017f373734346161000000000000000000000000000000000000000000000000000081525081526020016040518060400160405280600681526020017f303037633763000000000000000000000000000000000000000000000000000081525081526020016040518060400160405280600681526020017f613030303030000000000000000000000000000000000000000000000000000081525081526020016040518060400160405280600681526020017f383034613030000000000000000000000000000000000000000000000000000081525081526020016040518060400160405280600681526020017f383030303030000000000000000000000000000000000000000000000000000081525081526020016040518060400160405280600681526020017f353434663466000000000000000000000000000000000000000000000000000081525081526020016040518060400160405280600681526020017f6664653863640000000000000000000000000000000000000000000000000000815250815250601190600a62000811929190620009c6565b503480156200081f57600080fd5b5062000840620008346200084660201b60201c565b6200084e60201b60201c565b62000bb0565b600033905090565b60008060009054906101000a900473ffffffffffffffffffffffffffffffffffffffff169050816000806101000a81548173ffffffffffffffffffffffffffffffffffffffff021916908373ffffffffffffffffffffffffffffffffffffffff1602179055508173ffffffffffffffffffffffffffffffffffffffff168173ffffffffffffffffffffffffffffffffffffffff167f8be0079c531659141344cd1fd0a4f28419497f9722a3daafe3b4186f6b6457e060405160405180910390a35050565b826009810192821562000959579160200282015b82811115620009585782518290805190602001906200094792919062000a2d565b509160200191906001019062000926565b5b50905062000968919062000abe565b5090565b8260048101928215620009b3579160200282015b82811115620009b2578251829080519060200190620009a192919062000a2d565b509160200191906001019062000980565b5b509050620009c2919062000abe565b5090565b82805482825590600052602060002090810192821562000a1a579160200282015b8281111562000a1957825182908051906020019062000a0892919062000a2d565b5091602001919060010190620009e7565b5b50905062000a29919062000abe565b5090565b82805462000a3b9062000b7a565b90600052602060002090601f01602090048101928262000a5f576000855562000aab565b82601f1062000a7a57805160ff191683800117855562000aab565b8280016001018555821562000aab579182015b8281111562000aaa57825182559160200191906001019062000a8d565b5b50905062000aba919062000ae6565b5090565b5b8082111562000ae2576000818162000ad8919062000b05565b5060010162000abf565b5090565b5b8082111562000b0157600081600090555060010162000ae7565b5090565b50805462000b139062000b7a565b6000825580601f1062000b27575062000b48565b601f01602090049060005260206000209081019062000b47919062000ae6565b5b50565b7f4e487b7100000000000000000000000000000000000000000000000000000000600052602260045260246000fd5b6000600282049050600182168062000b9357607f821691505b6020821081141562000baa5762000ba962000b4b565b5b50919050565b61530a8062000bc06000396000f3fe608060405234801561001057600080fd5b506004361061009e5760003560e01c8063ba56f6ee11610066578063ba56f6ee1461015c578063c87b56dd1461017a578063d93ae3d9146101aa578063f2fde38b146101c6578063f9f2c161146101e25761009e565b806368dba5e5146100a3578063715018a6146100d35780637abecb86146100dd5780638da5cb5b1461010d5780639bf2ee351461012b575b600080fd5b6100bd60048036038101906100b89190613849565b6101fe565b6040516100ca919061390f565b60405180910390f35b6100db6117d3565b005b6100f760048036038101906100f29190613849565b61185b565b604051610104919061390f565b60405180910390f35b610115612917565b6040516101229190613972565b60405180910390f35b610145600480360381019061014091906139c6565b612940565b604051610153929190613a06565b60405180910390f35b610164612a81565b6040516101719190613a9c565b60405180910390f35b610194600480360381019061018f9190613849565b612aa7565b6040516101a1919061390f565b60405180910390f35b6101c460048036038101906101bf9190613b72565b612c4e565b005b6101e060048036038101906101db9190613c33565b612ed0565b005b6101fc60048036038101906101f79190613c33565b612fc8565b005b60606000600f60009054906101000a900473ffffffffffffffffffffffffffffffffffffffff1673ffffffffffffffffffffffffffffffffffffffff166394e56847846040518263ffffffff1660e01b815260040161025d9190613c6f565b6101406040518083038186803b15801561027657600080fd5b505afa15801561028a573d6000803e3d6000fd5b505050506040513d601f19601f820116820180604052508101906102ae9190613e4d565b90506060816000015115610e105761042060016000600981106102d4576102d3613e7b565b5b0180546102e090613ed9565b80601f016020809104026020016040519081016040528092919081815260200182805461030c90613ed9565b80156103595780601f1061032e57610100808354040283529160200191610359565b820191906000526020600020905b81548152906001019060200180831161033c57829003601f168201915b5050505050600a60008060ff1681526020019081526020016000206000856020015160ff1660ff168152602001908152602001600020600001805461039d90613ed9565b80601f01602080910402602001604051908101604052809291908181526020018280546103c990613ed9565b80156104165780601f106103eb57610100808354040283529160200191610416565b820191906000526020600020905b8154815290600101906020018083116103f957829003601f168201915b5050505050613088565b6105846001806009811061043757610436613e7b565b5b01805461044390613ed9565b80601f016020809104026020016040519081016040528092919081815260200182805461046f90613ed9565b80156104bc5780601f10610491576101008083540402835291602001916104bc565b820191906000526020600020905b81548152906001019060200180831161049f57829003601f168201915b5050505050600a6000600160ff1681526020019081526020016000206000866040015160ff1660ff168152602001908152602001600020600001805461050190613ed9565b80601f016020809104026020016040519081016040528092919081815260200182805461052d90613ed9565b801561057a5780601f1061054f5761010080835404028352916020019161057a565b820191906000526020600020905b81548152906001019060200180831161055d57829003601f168201915b5050505050613088565b6106e9600160026009811061059c5761059b613e7b565b5b0180546105a890613ed9565b80601f01602080910402602001604051908101604052809291908181526020018280546105d490613ed9565b80156106215780601f106105f657610100808354040283529160200191610621565b820191906000526020600020905b81548152906001019060200180831161060457829003601f168201915b5050505050600a6000600260ff1681526020019081526020016000206000876060015160ff1660ff168152602001908152602001600020600001805461066690613ed9565b80601f016020809104026020016040519081016040528092919081815260200182805461069290613ed9565b80156106df5780601f106106b4576101008083540402835291602001916106df565b820191906000526020600020905b8154815290600101906020018083116106c257829003601f168201915b5050505050613088565b61084e600160036009811061070157610700613e7b565b5b01805461070d90613ed9565b80601f016020809104026020016040519081016040528092919081815260200182805461073990613ed9565b80156107865780601f1061075b57610100808354040283529160200191610786565b820191906000526020600020905b81548152906001019060200180831161076957829003601f168201915b5050505050600a6000600360ff1681526020019081526020016000206000886080015160ff1660ff16815260200190815260200160002060000180546107cb90613ed9565b80601f01602080910402602001604051908101604052809291908181526020018280546107f790613ed9565b80156108445780601f1061081957610100808354040283529160200191610844565b820191906000526020600020905b81548152906001019060200180831161082757829003601f168201915b5050505050613088565b6109b3600160046009811061086657610865613e7b565b5b01805461087290613ed9565b80601f016020809104026020016040519081016040528092919081815260200182805461089e90613ed9565b80156108eb5780601f106108c0576101008083540402835291602001916108eb565b820191906000526020600020905b8154815290600101906020018083116108ce57829003601f168201915b5050505050600a6000600460ff16815260200190815260200160002060008960a0015160ff1660ff168152602001908152602001600020600001805461093090613ed9565b80601f016020809104026020016040519081016040528092919081815260200182805461095c90613ed9565b80156109a95780601f1061097e576101008083540402835291602001916109a9565b820191906000526020600020905b81548152906001019060200180831161098c57829003601f168201915b5050505050613088565b610b1860016005600981106109cb576109ca613e7b565b5b0180546109d790613ed9565b80601f0160208091040260200160405190810160405280929190818152602001828054610a0390613ed9565b8015610a505780601f10610a2557610100808354040283529160200191610a50565b820191906000526020600020905b815481529060010190602001808311610a3357829003601f168201915b5050505050600a6000600560ff16815260200190815260200160002060008a60c0015160ff1660ff1681526020019081526020016000206000018054610a9590613ed9565b80601f0160208091040260200160405190810160405280929190818152602001828054610ac190613ed9565b8015610b0e5780601f10610ae357610100808354040283529160200191610b0e565b820191906000526020600020905b815481529060010190602001808311610af157829003601f168201915b5050505050613088565b610c7d6001600660098110610b3057610b2f613e7b565b5b018054610b3c90613ed9565b80601f0160208091040260200160405190810160405280929190818152602001828054610b6890613ed9565b8015610bb55780601f10610b8a57610100808354040283529160200191610bb5565b820191906000526020600020905b815481529060010190602001808311610b9857829003601f168201915b5050505050600a6000600660ff16815260200190815260200160002060008b60e0015160ff1660ff1681526020019081526020016000206000018054610bfa90613ed9565b80601f0160208091040260200160405190810160405280929190818152602001828054610c2690613ed9565b8015610c735780601f10610c4857610100808354040283529160200191610c73565b820191906000526020600020905b815481529060010190602001808311610c5657829003601f168201915b5050505050613088565b610de36001600760098110610c9557610c94613e7b565b5b018054610ca190613ed9565b80601f0160208091040260200160405190810160405280929190818152602001828054610ccd90613ed9565b8015610d1a5780601f10610cef57610100808354040283529160200191610d1a565b820191906000526020600020905b815481529060010190602001808311610cfd57829003601f168201915b5050505050600a6000600760ff16815260200190815260200160002060008c610100015160ff1660ff1681526020019081526020016000206000018054610d6090613ed9565b80601f0160208091040260200160405190810160405280929190818152602001828054610d8c90613ed9565b8015610dd95780601f10610dae57610100808354040283529160200191610dd9565b820191906000526020600020905b815481529060010190602001808311610dbc57829003601f168201915b5050505050613088565b604051602001610dfa989796959493929190613f93565b6040516020818303038152906040529050611614565b610f756001600060098110610e2857610e27613e7b565b5b018054610e3490613ed9565b80601f0160208091040260200160405190810160405280929190818152602001828054610e6090613ed9565b8015610ead5780601f10610e8257610100808354040283529160200191610ead565b820191906000526020600020905b815481529060010190602001808311610e9057829003601f168201915b5050505050600a6000600960ff1681526020019081526020016000206000856020015160ff1660ff1681526020019081526020016000206000018054610ef290613ed9565b80601f0160208091040260200160405190810160405280929190818152602001828054610f1e90613ed9565b8015610f6b5780601f10610f4057610100808354040283529160200191610f6b565b820191906000526020600020905b815481529060010190602001808311610f4e57829003601f168201915b5050505050613088565b6110da60018060098110610f8c57610f8b613e7b565b5b018054610f9890613ed9565b80601f0160208091040260200160405190810160405280929190818152602001828054610fc490613ed9565b80156110115780601f10610fe657610100808354040283529160200191611011565b820191906000526020600020905b815481529060010190602001808311610ff457829003601f168201915b5050505050600a6000600a60ff168152602001908152602001600020600086610120015160ff1660ff168152602001908152602001600020600001805461105790613ed9565b80601f016020809104026020016040519081016040528092919081815260200182805461108390613ed9565b80156110d05780601f106110a5576101008083540402835291602001916110d0565b820191906000526020600020905b8154815290600101906020018083116110b357829003601f168201915b5050505050613088565b61123f60016003600981106110f2576110f1613e7b565b5b0180546110fe90613ed9565b80601f016020809104026020016040519081016040528092919081815260200182805461112a90613ed9565b80156111775780601f1061114c57610100808354040283529160200191611177565b820191906000526020600020905b81548152906001019060200180831161115a57829003601f168201915b5050505050600a6000600c60ff1681526020019081526020016000206000876080015160ff1660ff16815260200190815260200160002060000180546111bc90613ed9565b80601f01602080910402602001604051908101604052809291908181526020018280546111e890613ed9565b80156112355780601f1061120a57610100808354040283529160200191611235565b820191906000526020600020905b81548152906001019060200180831161121857829003601f168201915b5050505050613088565b6113a4600160056009811061125757611256613e7b565b5b01805461126390613ed9565b80601f016020809104026020016040519081016040528092919081815260200182805461128f90613ed9565b80156112dc5780601f106112b1576101008083540402835291602001916112dc565b820191906000526020600020905b8154815290600101906020018083116112bf57829003601f168201915b5050505050600a6000600e60ff16815260200190815260200160002060008860c0015160ff1660ff168152602001908152602001600020600001805461132190613ed9565b80601f016020809104026020016040519081016040528092919081815260200182805461134d90613ed9565b801561139a5780601f1061136f5761010080835404028352916020019161139a565b820191906000526020600020905b81548152906001019060200180831161137d57829003601f168201915b5050505050613088565b61150960016006600981106113bc576113bb613e7b565b5b0180546113c890613ed9565b80601f01602080910402602001604051908101604052809291908181526020018280546113f490613ed9565b80156114415780601f1061141657610100808354040283529160200191611441565b820191906000526020600020905b81548152906001019060200180831161142457829003601f168201915b5050505050600a6000600f60ff16815260200190815260200160002060008960e0015160ff1660ff168152602001908152602001600020600001805461148690613ed9565b80601f01602080910402602001604051908101604052809291908181526020018280546114b290613ed9565b80156114ff5780601f106114d4576101008083540402835291602001916114ff565b820191906000526020600020905b8154815290600101906020018083116114e257829003601f168201915b5050505050613088565b6115ed6040518060400160405280600e81526020017f446976696e6974792053636f7265000000000000000000000000000000000000815250600b89610120015160ff166004811061155e5761155d613e7b565b5b01805461156a90613ed9565b80601f016020809104026020016040519081016040528092919081815260200182805461159690613ed9565b80156115e35780601f106115b8576101008083540402835291602001916115e3565b820191906000526020600020905b8154815290600101906020018083116115c657829003601f168201915b5050505050613088565b6040516020016116029695949392919061405d565b60405160208183030381529060405290505b80600f60009054906101000a900473ffffffffffffffffffffffffffffffffffffffff1673ffffffffffffffffffffffffffffffffffffffff16634018b1f86040518163ffffffff1660e01b815260040160206040518083038186803b15801561167d57600080fd5b505afa158015611691573d6000803e3d6000fd5b505050506040513d601f19601f820116820180604052508101906116b5919061410c565b8511156116f7576040518060400160405280600781526020017f2247656e2031220000000000000000000000000000000000000000000000000081525061172e565b6040518060400160405280600781526020017f2247656e203022000000000000000000000000000000000000000000000000008152505b8360000151611772576040518060400160405280600581526020017f22476f64220000000000000000000000000000000000000000000000000000008152506117a9565b6040518060400160405280600c81526020017f22576f72736869707065722200000000000000000000000000000000000000008152505b6040516020016117bb9392919061428f565b60405160208183030381529060405292505050919050565b6117db6130b4565b73ffffffffffffffffffffffffffffffffffffffff166117f9612917565b73ffffffffffffffffffffffffffffffffffffffff161461184f576040517f08c379a000000000000000000000000000000000000000000000000000000000815260040161184690614338565b60405180910390fd5b61185960006130bc565b565b60606000600f60009054906101000a900473ffffffffffffffffffffffffffffffffffffffff1673ffffffffffffffffffffffffffffffffffffffff166394e56847846040518263ffffffff1660e01b81526004016118ba9190613c6f565b6101406040518083038186803b1580156118d357600080fd5b505afa1580156118e7573d6000803e3d6000fd5b505050506040513d601f19601f8201168201806040525081019061190b9190613e4d565b90506000816000015161191f576009611922565b60005b90506000611a9d600a600084600061193a9190614387565b60ff1660ff1681526020019081526020016000206000856020015160ff1660ff16815260200190815260200160002060405180604001604052908160008201805461198490613ed9565b80601f01602080910402602001604051908101604052809291908181526020018280546119b090613ed9565b80156119fd5780601f106119d2576101008083540402835291602001916119fd565b820191906000526020600020905b8154815290600101906020018083116119e057829003601f168201915b50505050508152602001600182018054611a1690613ed9565b80601f0160208091040260200160405190810160405280929190818152602001828054611a4290613ed9565b8015611a8f5780601f10611a6457610100808354040283529160200191611a8f565b820191906000526020600020905b815481529060010190602001808311611a7257829003601f168201915b505050505081525050613180565b8360000151611c2357611c1e600a6000856001611aba9190614387565b60ff1660ff168152602001908152602001600020600086610120015160ff1660ff168152602001908152602001600020604051806040016040529081600082018054611b0590613ed9565b80601f0160208091040260200160405190810160405280929190818152602001828054611b3190613ed9565b8015611b7e5780601f10611b5357610100808354040283529160200191611b7e565b820191906000526020600020905b815481529060010190602001808311611b6157829003601f168201915b50505050508152602001600182018054611b9790613ed9565b80601f0160208091040260200160405190810160405280929190818152602001828054611bc390613ed9565b8015611c105780601f10611be557610100808354040283529160200191611c10565b820191906000526020600020905b815481529060010190602001808311611bf357829003601f168201915b505050505081525050613180565b611d9b565b611d9a600a6000856001611c379190614387565b60ff1660ff1681526020019081526020016000206000866040015160ff1660ff168152602001908152602001600020604051806040016040529081600082018054611c8190613ed9565b80601f0160208091040260200160405190810160405280929190818152602001828054611cad90613ed9565b8015611cfa5780601f10611ccf57610100808354040283529160200191611cfa565b820191906000526020600020905b815481529060010190602001808311611cdd57829003601f168201915b50505050508152602001600182018054611d1390613ed9565b80601f0160208091040260200160405190810160405280929190818152602001828054611d3f90613ed9565b8015611d8c5780601f10611d6157610100808354040283529160200191611d8c565b820191906000526020600020905b815481529060010190602001808311611d6f57829003601f168201915b505050505081525050613180565b5b8460000151611db95760405180602001604052806000815250611f31565b611f30600a6000866002611dcd9190614387565b60ff1660ff1681526020019081526020016000206000876060015160ff1660ff168152602001908152602001600020604051806040016040529081600082018054611e1790613ed9565b80601f0160208091040260200160405190810160405280929190818152602001828054611e4390613ed9565b8015611e905780601f10611e6557610100808354040283529160200191611e90565b820191906000526020600020905b815481529060010190602001808311611e7357829003601f168201915b50505050508152602001600182018054611ea990613ed9565b80601f0160208091040260200160405190810160405280929190818152602001828054611ed590613ed9565b8015611f225780601f10611ef757610100808354040283529160200191611f22565b820191906000526020600020905b815481529060010190602001808311611f0557829003601f168201915b505050505081525050613180565b5b6120a8600a6000876003611f459190614387565b60ff1660ff1681526020019081526020016000206000886080015160ff1660ff168152602001908152602001600020604051806040016040529081600082018054611f8f90613ed9565b80601f0160208091040260200160405190810160405280929190818152602001828054611fbb90613ed9565b80156120085780601f10611fdd57610100808354040283529160200191612008565b820191906000526020600020905b815481529060010190602001808311611feb57829003601f168201915b5050505050815260200160018201805461202190613ed9565b80601f016020809104026020016040519081016040528092919081815260200182805461204d90613ed9565b801561209a5780601f1061206f5761010080835404028352916020019161209a565b820191906000526020600020905b81548152906001019060200180831161207d57829003601f168201915b505050505081525050613180565b86600001516120c6576040518060200160405280600081525061223e565b61223d600a60008860046120da9190614387565b60ff1660ff16815260200190815260200160002060008960a0015160ff1660ff16815260200190815260200160002060405180604001604052908160008201805461212490613ed9565b80601f016020809104026020016040519081016040528092919081815260200182805461215090613ed9565b801561219d5780601f106121725761010080835404028352916020019161219d565b820191906000526020600020905b81548152906001019060200180831161218057829003601f168201915b505050505081526020016001820180546121b690613ed9565b80601f01602080910402602001604051908101604052809291908181526020018280546121e290613ed9565b801561222f5780601f106122045761010080835404028352916020019161222f565b820191906000526020600020905b81548152906001019060200180831161221257829003601f168201915b505050505081525050613180565b5b87600001516123c3576123be600a600089600661225b9190614387565b60ff1660ff16815260200190815260200160002060008a60e0015160ff1660ff1681526020019081526020016000206040518060400160405290816000820180546122a590613ed9565b80601f01602080910402602001604051908101604052809291908181526020018280546122d190613ed9565b801561231e5780601f106122f35761010080835404028352916020019161231e565b820191906000526020600020905b81548152906001019060200180831161230157829003601f168201915b5050505050815260200160018201805461233790613ed9565b80601f016020809104026020016040519081016040528092919081815260200182805461236390613ed9565b80156123b05780601f10612385576101008083540402835291602001916123b0565b820191906000526020600020905b81548152906001019060200180831161239357829003601f168201915b505050505081525050613180565b6123d4565b604051806020016040528060008152505b61254b600a60008a60056123e89190614387565b60ff1660ff16815260200190815260200160002060008b60c0015160ff1660ff16815260200190815260200160002060405180604001604052908160008201805461243290613ed9565b80601f016020809104026020016040519081016040528092919081815260200182805461245e90613ed9565b80156124ab5780601f10612480576101008083540402835291602001916124ab565b820191906000526020600020905b81548152906001019060200180831161248e57829003601f168201915b505050505081526020016001820180546124c490613ed9565b80601f01602080910402602001604051908101604052809291908181526020018280546124f090613ed9565b801561253d5780601f106125125761010080835404028352916020019161253d565b820191906000526020600020905b81548152906001019060200180831161252057829003601f168201915b505050505081525050613180565b896000015161256957604051806020016040528060008152506126e1565b6126e0600a60008b600661257d9190614387565b60ff1660ff16815260200190815260200160002060008c60e0015160ff1660ff1681526020019081526020016000206040518060400160405290816000820180546125c790613ed9565b80601f01602080910402602001604051908101604052809291908181526020018280546125f390613ed9565b80156126405780601f1061261557610100808354040283529160200191612640565b820191906000526020600020905b81548152906001019060200180831161262357829003601f168201915b5050505050815260200160018201805461265990613ed9565b80601f016020809104026020016040519081016040528092919081815260200182805461268590613ed9565b80156126d25780601f106126a7576101008083540402835291602001916126d2565b820191906000526020600020905b8154815290600101906020018083116126b557829003601f168201915b505050505081525050613180565b5b8a600001516126ff5760405180602001604052806000815250612878565b612877600a60008c60076127139190614387565b60ff1660ff16815260200190815260200160002060008d610100015160ff1660ff16815260200190815260200160002060405180604001604052908160008201805461275e90613ed9565b80601f016020809104026020016040519081016040528092919081815260200182805461278a90613ed9565b80156127d75780601f106127ac576101008083540402835291602001916127d7565b820191906000526020600020905b8154815290600101906020018083116127ba57829003601f168201915b505050505081526020016001820180546127f090613ed9565b80601f016020809104026020016040519081016040528092919081815260200182805461281c90613ed9565b80156128695780601f1061283e57610100808354040283529160200191612869565b820191906000526020600020905b81548152906001019060200180831161284c57829003601f168201915b505050505081525050613180565b5b604051602001612890999897969594939291906143be565b604051602081830303815290604052905060006128ac866131ad565b9050601081815481106128c2576128c1613e7b565b5b90600052602060002001601182815481106128e0576128df613e7b565b5b90600052602060002001836040516020016128fd939291906147cc565b604051602081830303815290604052945050505050919050565b60008060009054906101000a900473ffffffffffffffffffffffffffffffffffffffff16905090565b600a6020528160005260406000206020528060005260406000206000915091505080600001805461297090613ed9565b80601f016020809104026020016040519081016040528092919081815260200182805461299c90613ed9565b80156129e95780601f106129be576101008083540402835291602001916129e9565b820191906000526020600020905b8154815290600101906020018083116129cc57829003601f168201915b5050505050908060010180546129fe90613ed9565b80601f0160208091040260200160405190810160405280929190818152602001828054612a2a90613ed9565b8015612a775780601f10612a4c57610100808354040283529160200191612a77565b820191906000526020600020905b815481529060010190602001808311612a5a57829003601f168201915b5050505050905082565b600f60009054906101000a900473ffffffffffffffffffffffffffffffffffffffff1681565b60606000600f60009054906101000a900473ffffffffffffffffffffffffffffffffffffffff1673ffffffffffffffffffffffffffffffffffffffff166394e56847846040518263ffffffff1660e01b8152600401612b069190613c6f565b6101406040518083038186803b158015612b1f57600080fd5b505afa158015612b33573d6000803e3d6000fd5b505050506040513d601f19601f82011682018060405250810190612b579190613e4d565b905060008160000151612b9f576040518060400160405280600581526020017f476f642023000000000000000000000000000000000000000000000000000000815250612bd6565b6040518060400160405280600c81526020017f576f7273686970706572202300000000000000000000000000000000000000008152505b612bdf85613224565b612bf0612beb8761185b565b613385565b612bf9876101fe565b604051602001612c0c9493929190614ab3565b6040516020818303038152906040529050612c2681613385565b604051602001612c369190614b69565b60405160208183030381529060405292505050919050565b612c566130b4565b73ffffffffffffffffffffffffffffffffffffffff16612c74612917565b73ffffffffffffffffffffffffffffffffffffffff1614612cca576040517f08c379a0000000000000000000000000000000000000000000000000000000008152600401612cc190614338565b60405180910390fd5b818190508484905014612d12576040517f08c379a0000000000000000000000000000000000000000000000000000000008152600401612d0990614bd7565b60405180910390fd5b60005b82829050811015612ec8576040518060400160405280848484818110612d3e57612d3d613e7b565b5b9050602002810190612d509190614c06565b8060000190612d5f9190614c2e565b8080601f016020809104026020016040519081016040528093929190818152602001838380828437600081840152601f19601f820116905080830192505050505050508152602001848484818110612dba57612db9613e7b565b5b9050602002810190612dcc9190614c06565b8060200190612ddb9190614c2e565b8080601f016020809104026020016040519081016040528093929190818152602001838380828437600081840152601f19601f82011690508083019250505050505050815250600a60008860ff1660ff1681526020019081526020016000206000878785818110612e4f57612e4e613e7b565b5b9050602002016020810190612e649190614c91565b60ff1660ff1681526020019081526020016000206000820151816000019080519060200190612e9492919061375c565b506020820151816001019080519060200190612eb192919061375c565b509050508080612ec090614cbe565b915050612d15565b505050505050565b612ed86130b4565b73ffffffffffffffffffffffffffffffffffffffff16612ef6612917565b73ffffffffffffffffffffffffffffffffffffffff1614612f4c576040517f08c379a0000000000000000000000000000000000000000000000000000000008152600401612f4390614338565b60405180910390fd5b600073ffffffffffffffffffffffffffffffffffffffff168173ffffffffffffffffffffffffffffffffffffffff161415612fbc576040517f08c379a0000000000000000000000000000000000000000000000000000000008152600401612fb390614d79565b60405180910390fd5b612fc5816130bc565b50565b612fd06130b4565b73ffffffffffffffffffffffffffffffffffffffff16612fee612917565b73ffffffffffffffffffffffffffffffffffffffff1614613044576040517f08c379a000000000000000000000000000000000000000000000000000000000815260040161303b90614338565b60405180910390fd5b80600f60006101000a81548173ffffffffffffffffffffffffffffffffffffffff021916908373ffffffffffffffffffffffffffffffffffffffff16021790555050565b6060828260405160200161309d929190614e7d565b604051602081830303815290604052905092915050565b600033905090565b60008060009054906101000a900473ffffffffffffffffffffffffffffffffffffffff169050816000806101000a81548173ffffffffffffffffffffffffffffffffffffffff021916908373ffffffffffffffffffffffffffffffffffffffff1602179055508173ffffffffffffffffffffffffffffffffffffffff168173ffffffffffffffffffffffffffffffffffffffff167f8be0079c531659141344cd1fd0a4f28419497f9722a3daafe3b4186f6b6457e060405160405180910390a35050565b606081602001516040516020016131979190614ff2565b6040516020818303038152906040529050919050565b600080600a6010600a856131c1919061504e565b815481106131d2576131d1613e7b565b5b906000526020600020016131e58561350a565b6040516020016131f69291906150cb565b6040516020818303038152906040528051906020012060001c613219919061504e565b905080915050919050565b6060600082141561326c576040518060400160405280600181526020017f30000000000000000000000000000000000000000000000000000000000000008152509050613380565b600082905060005b6000821461329e57808061328790614cbe565b915050600a8261329791906150fa565b9150613274565b60008167ffffffffffffffff8111156132ba576132b9613c8f565b5b6040519080825280601f01601f1916602001820160405280156132ec5781602001600182028036833780820191505090505b5090505b6000851461337957600182613305919061512b565b9150600a85613314919061504e565b6030613320919061515f565b60f81b81838151811061333657613335613e7b565b5b60200101907effffffffffffffffffffffffffffffffffffffffffffffffffffffffffffff1916908160001a905350600a8561337291906150fa565b94506132f0565b8093505050505b919050565b60606000825114156133a857604051806020016040528060008152509050613505565b600060405180606001604052806040815260200161529560409139905060006003600285516133d7919061515f565b6133e191906150fa565b60046133ed91906151b5565b905060006020826133fe919061515f565b67ffffffffffffffff81111561341757613416613c8f565b5b6040519080825280601f01601f1916602001820160405280156134495781602001600182028036833780820191505090505b509050818152600183018586518101602084015b818310156134c4576003830192508251603f8160121c1685015160f81b8252600182019150603f81600c1c1685015160f81b8252600182019150603f8160061c1685015160f81b8252600182019150603f811685015160f81b82526001820191505061345d565b6003895106600181146134de57600281146134ee576134f9565b613d3d60f01b60028303526134f9565b603d60f81b60018303525b50505050508093505050505b919050565b6060600061353e61351a84613224565b60405160200161352a919061525b565b6040516020818303038152906040526135a0565b9050620186a0620f423f82613553919061504e565b61355d919061515f565b90505b620f423f81111561358f57620186a0620f423f8261357e919061504e565b613588919061515f565b9050613560565b613598816135d3565b915050919050565b6000816040516020016135b3919061527d565b6040516020818303038152906040528051906020012060001c9050919050565b6060600082141561361b576040518060400160405280600181526020017f30000000000000000000000000000000000000000000000000000000000000008152509050613757565b600082905060005b6000821461364d57808061363690614cbe565b915050600a8261364691906150fa565b9150613623565b60008167ffffffffffffffff81111561366957613668613c8f565b5b6040519080825280601f01601f19166020018201604052801561369b5781602001600182028036833780820191505090505b50905060008290505b6000861461374f576001816136b9919061512b565b90506000600a80886136cb91906150fa565b6136d591906151b5565b876136e0919061512b565b60306136ec9190614387565b905060008160f81b90508084848151811061370a57613709613e7b565b5b60200101907effffffffffffffffffffffffffffffffffffffffffffffffffffffffffffff1916908160001a905350600a8861374691906150fa565b975050506136a4565b819450505050505b919050565b82805461376890613ed9565b90600052602060002090601f01602090048101928261378a57600085556137d1565b82601f106137a357805160ff19168380011785556137d1565b828001600101855582156137d1579182015b828111156137d05782518255916020019190600101906137b5565b5b5090506137de91906137e2565b5090565b5b808211156137fb5760008160009055506001016137e3565b5090565b6000604051905090565b600080fd5b600080fd5b6000819050919050565b61382681613813565b811461383157600080fd5b50565b6000813590506138438161381d565b92915050565b60006020828403121561385f5761385e613809565b5b600061386d84828501613834565b91505092915050565b600081519050919050565b600082825260208201905092915050565b60005b838110156138b0578082015181840152602081019050613895565b838111156138bf576000848401525b50505050565b6000601f19601f8301169050919050565b60006138e182613876565b6138eb8185613881565b93506138fb818560208601613892565b613904816138c5565b840191505092915050565b6000602082019050818103600083015261392981846138d6565b905092915050565b600073ffffffffffffffffffffffffffffffffffffffff82169050919050565b600061395c82613931565b9050919050565b61396c81613951565b82525050565b60006020820190506139876000830184613963565b92915050565b600060ff82169050919050565b6139a38161398d565b81146139ae57600080fd5b50565b6000813590506139c08161399a565b92915050565b600080604083850312156139dd576139dc613809565b5b60006139eb858286016139b1565b92505060206139fc858286016139b1565b9150509250929050565b60006040820190508181036000830152613a2081856138d6565b90508181036020830152613a3481846138d6565b90509392505050565b6000819050919050565b6000613a62613a5d613a5884613931565b613a3d565b613931565b9050919050565b6000613a7482613a47565b9050919050565b6000613a8682613a69565b9050919050565b613a9681613a7b565b82525050565b6000602082019050613ab16000830184613a8d565b92915050565b600080fd5b600080fd5b600080fd5b60008083601f840112613adc57613adb613ab7565b5b8235905067ffffffffffffffff811115613af957613af8613abc565b5b602083019150836020820283011115613b1557613b14613ac1565b5b9250929050565b60008083601f840112613b3257613b31613ab7565b5b8235905067ffffffffffffffff811115613b4f57613b4e613abc565b5b602083019150836020820283011115613b6b57613b6a613ac1565b5b9250929050565b600080600080600060608688031215613b8e57613b8d613809565b5b6000613b9c888289016139b1565b955050602086013567ffffffffffffffff811115613bbd57613bbc61380e565b5b613bc988828901613ac6565b9450945050604086013567ffffffffffffffff811115613bec57613beb61380e565b5b613bf888828901613b1c565b92509250509295509295909350565b613c1081613951565b8114613c1b57600080fd5b50565b600081359050613c2d81613c07565b92915050565b600060208284031215613c4957613c48613809565b5b6000613c5784828501613c1e565b91505092915050565b613c6981613813565b82525050565b6000602082019050613c846000830184613c60565b92915050565b600080fd5b7f4e487b7100000000000000000000000000000000000000000000000000000000600052604160045260246000fd5b613cc7826138c5565b810181811067ffffffffffffffff82111715613ce657613ce5613c8f565b5b80604052505050565b6000613cf96137ff565b9050613d058282613cbe565b919050565b60008115159050919050565b613d1f81613d0a565b8114613d2a57600080fd5b50565b600081519050613d3c81613d16565b92915050565b600081519050613d518161399a565b92915050565b60006101408284031215613d6e57613d6d613c8a565b5b613d79610140613cef565b90506000613d8984828501613d2d565b6000830152506020613d9d84828501613d42565b6020830152506040613db184828501613d42565b6040830152506060613dc584828501613d42565b6060830152506080613dd984828501613d42565b60808301525060a0613ded84828501613d42565b60a08301525060c0613e0184828501613d42565b60c08301525060e0613e1584828501613d42565b60e083015250610100613e2a84828501613d42565b61010083015250610120613e4084828501613d42565b6101208301525092915050565b60006101408284031215613e6457613e63613809565b5b6000613e7284828501613d57565b91505092915050565b7f4e487b7100000000000000000000000000000000000000000000000000000000600052603260045260246000fd5b7f4e487b7100000000000000000000000000000000000000000000000000000000600052602260045260246000fd5b60006002820490506001821680613ef157607f821691505b60208210811415613f0557613f04613eaa565b5b50919050565b600081905092915050565b6000613f2182613876565b613f2b8185613f0b565b9350613f3b818560208601613892565b80840191505092915050565b7f2c00000000000000000000000000000000000000000000000000000000000000600082015250565b6000613f7d600183613f0b565b9150613f8882613f47565b600182019050919050565b6000613f9f828b613f16565b9150613faa82613f70565b9150613fb6828a613f16565b9150613fc182613f70565b9150613fcd8289613f16565b9150613fd882613f70565b9150613fe48288613f16565b9150613fef82613f70565b9150613ffb8287613f16565b915061400682613f70565b91506140128286613f16565b915061401d82613f70565b91506140298285613f16565b915061403482613f70565b91506140408284613f16565b915061404b82613f70565b91508190509998505050505050505050565b60006140698289613f16565b915061407482613f70565b91506140808288613f16565b915061408b82613f70565b91506140978287613f16565b91506140a282613f70565b91506140ae8286613f16565b91506140b982613f70565b91506140c58285613f16565b91506140d082613f70565b91506140dc8284613f16565b91506140e782613f70565b9150819050979650505050505050565b6000815190506141068161381d565b92915050565b60006020828403121561412257614121613809565b5b6000614130848285016140f7565b91505092915050565b7f5b00000000000000000000000000000000000000000000000000000000000000600082015250565b600061416f600183613f0b565b915061417a82614139565b600182019050919050565b7f7b2274726169745f74797065223a2247656e65726174696f6e222c2276616c7560008201527f65223a0000000000000000000000000000000000000000000000000000000000602082015250565b60006141e1602383613f0b565b91506141ec82614185565b602382019050919050565b7f7d2c7b2274726169745f74797065223a2254797065222c2276616c7565223a00600082015250565b600061422d601f83613f0b565b9150614238826141f7565b601f82019050919050565b7f7d5d000000000000000000000000000000000000000000000000000000000000600082015250565b6000614279600283613f0b565b915061428482614243565b600282019050919050565b600061429a82614162565b91506142a68286613f16565b91506142b1826141d4565b91506142bd8285613f16565b91506142c882614220565b91506142d48284613f16565b91506142df8261426c565b9150819050949350505050565b7f4f776e61626c653a2063616c6c6572206973206e6f7420746865206f776e6572600082015250565b6000614322602083613881565b915061432d826142ec565b602082019050919050565b6000602082019050818103600083015261435181614315565b9050919050565b7f4e487b7100000000000000000000000000000000000000000000000000000000600052601160045260246000fd5b60006143928261398d565b915061439d8361398d565b92508260ff038211156143b3576143b2614358565b5b828201905092915050565b60006143ca828c613f16565b91506143d6828b613f16565b91506143e2828a613f16565b91506143ee8289613f16565b91506143fa8288613f16565b91506144068287613f16565b91506144128286613f16565b915061441e8285613f16565b915061442a8284613f16565b91508190509a9950505050505050505050565b7f3c7376672069643d22476f64222077696474683d22313030252220686569676860008201527f743d2231303025222076657273696f6e3d22312e31222076696577426f783d2260208201527f3020302034302034302220786d6c6e733d22687474703a2f2f7777772e77332e60408201527f6f72672f323030302f7376672220786d6c6e733a786c696e6b3d22687474703a60608201527f2f2f7777772e77332e6f72672f313939392f786c696e6b223e203c726164696160808201527f6c4772616469656e742069643d2272616469616c222078313d2230252220793160a08201527f3d223025222078323d223025222079323d223130302522207370726561644d6560c08201527f74686f643d22706164223e203c73746f70206f66667365743d2236302522202060e08201527f2073746f702d636f6c6f723d222300000000000000000000000000000000000061010082015250565b60006145a561010e83613f0b565b91506145b08261443d565b61010e82019050919050565b60008190508160005260206000209050919050565b600081546145de81613ed9565b6145e88186613f0b565b94506001821660008114614603576001811461461457614647565b60ff19831686528186019350614647565b61461d856145bc565b60005b8381101561463f57815481890152600182019150602081019050614620565b838801955050505b50505092915050565b7f222073746f702d6f7061636974793d2231222f3e203c73746f70206f6666736560008201527f743d22383025222073746f702d636f6c6f723d22230000000000000000000000602082015250565b60006146ac603583613f0b565b91506146b782614650565b603582019050919050565b7f222073746f702d6f7061636974793d2231222f3e3c2f72616469616c4772616460008201527f69656e743e203c7265637420783d22302220793d2230222077696474683d223460208201527f3022206865696768743d22343022207374796c653d2266696c6c3a75726c282360408201527f72616469616c2922202f3e000000000000000000000000000000000000000000606082015250565b600061476a606b83613f0b565b9150614775826146c2565b606b82019050919050565b7f3c2f7376673e0000000000000000000000000000000000000000000000000000600082015250565b60006147b6600683613f0b565b91506147c182614780565b600682019050919050565b60006147d782614597565b91506147e382866145d1565b91506147ee8261469f565b91506147fa82856145d1565b91506148058261475d565b91506148118284613f16565b915061481c826147a9565b9150819050949350505050565b7f7b226e616d65223a202200000000000000000000000000000000000000000000600082015250565b600061485f600a83613f0b565b915061486a82614829565b600a82019050919050565b7f222c20226465736372697074696f6e223a2022476f20746f207468652054656d60008201527f706c65206173206120576f727368697070657220746f206561726e202446414960208201527f54482c207768696c6520476f647320636f6c6c65637420323025206f6620746860408201527f652024464149544820616e6420617474656d707420746f2077696e207468652060608201527f6661766f72206f662074686520576f7273686970706572732e20496d6d65727360808201527f6520796f757273656c6620696e20616e6369656e742074696d657320696e207060a08201527f757273756974206f66206120636f6d6d6f6e20676f616c3a202446414954482e60c08201527f20416c6c20646174612073746f726564206f6e2d636861696e206f6e2074686560e08201527f204d6574697320626c6f636b636861696e2e20222c2022696d616765223a20226101008201527f646174613a696d6167652f7376672b786d6c3b6261736536342c00000000000061012082015250565b6000614a0461013a83613f0b565b9150614a0f82614875565b61013a82019050919050565b7f222c202261747472696275746573223a00000000000000000000000000000000600082015250565b6000614a51601083613f0b565b9150614a5c82614a1b565b601082019050919050565b7f7d00000000000000000000000000000000000000000000000000000000000000600082015250565b6000614a9d600183613f0b565b9150614aa882614a67565b600182019050919050565b6000614abe82614852565b9150614aca8287613f16565b9150614ad68286613f16565b9150614ae1826149f6565b9150614aed8285613f16565b9150614af882614a44565b9150614b048284613f16565b9150614b0f82614a90565b915081905095945050505050565b7f646174613a6170706c69636174696f6e2f6a736f6e3b6261736536342c000000600082015250565b6000614b53601d83613f0b565b9150614b5e82614b1d565b601d82019050919050565b6000614b7482614b46565b9150614b808284613f16565b915081905092915050565b7f4d69736d61746368656420696e70757473000000000000000000000000000000600082015250565b6000614bc1601183613881565b9150614bcc82614b8b565b602082019050919050565b60006020820190508181036000830152614bf081614bb4565b9050919050565b600080fd5b600080fd5b600080fd5b600082356001604003833603038112614c2257614c21614bf7565b5b80830191505092915050565b60008083356001602003843603038112614c4b57614c4a614bf7565b5b80840192508235915067ffffffffffffffff821115614c6d57614c6c614bfc565b5b602083019250600182023603831315614c8957614c88614c01565b5b509250929050565b600060208284031215614ca757614ca6613809565b5b6000614cb5848285016139b1565b91505092915050565b6000614cc982613813565b91507fffffffffffffffffffffffffffffffffffffffffffffffffffffffffffffffff821415614cfc57614cfb614358565b5b600182019050919050565b7f4f776e61626c653a206e6577206f776e657220697320746865207a65726f206160008201527f6464726573730000000000000000000000000000000000000000000000000000602082015250565b6000614d63602683613881565b9150614d6e82614d07565b604082019050919050565b60006020820190508181036000830152614d9281614d56565b9050919050565b7f7b2274726169745f74797065223a220000000000000000000000000000000000600082015250565b6000614dcf600f83613f0b565b9150614dda82614d99565b600f82019050919050565b7f222c2276616c7565223a22000000000000000000000000000000000000000000600082015250565b6000614e1b600b83613f0b565b9150614e2682614de5565b600b82019050919050565b7f227d000000000000000000000000000000000000000000000000000000000000600082015250565b6000614e67600283613f0b565b9150614e7282614e31565b600282019050919050565b6000614e8882614dc2565b9150614e948285613f16565b9150614e9f82614e0e565b9150614eab8284613f16565b9150614eb682614e5a565b91508190509392505050565b7f3c696d61676520783d22342220793d2234222077696474683d2233322220686560008201527f696768743d2233322220696d6167652d72656e646572696e673d22706978656c60208201527f6174656422207072657365727665417370656374526174696f3d22784d69645960408201527f4d69642220786c696e6b3a687265663d22646174613a696d6167652f706e673b60608201527f6261736536342c00000000000000000000000000000000000000000000000000608082015250565b6000614f90608783613f0b565b9150614f9b82614ec2565b608782019050919050565b7f222f3e0000000000000000000000000000000000000000000000000000000000600082015250565b6000614fdc600383613f0b565b9150614fe782614fa6565b600382019050919050565b6000614ffd82614f83565b91506150098284613f16565b915061501482614fcf565b915081905092915050565b7f4e487b7100000000000000000000000000000000000000000000000000000000600052601260045260246000fd5b600061505982613813565b915061506483613813565b9250826150745761507361501f565b5b828206905092915050565b7f52414e445f434f4c4f5200000000000000000000000000000000000000000000600082015250565b60006150b5600a83613f0b565b91506150c08261507f565b600a82019050919050565b60006150d782856145d1565b91506150e2826150a8565b91506150ee8284613f16565b91508190509392505050565b600061510582613813565b915061511083613813565b9250826151205761511f61501f565b5b828204905092915050565b600061513682613813565b915061514183613813565b92508282101561515457615153614358565b5b828203905092915050565b600061516a82613813565b915061517583613813565b9250827fffffffffffffffffffffffffffffffffffffffffffffffffffffffffffffffff038211156151aa576151a9614358565b5b828201905092915050565b60006151c082613813565b91506151cb83613813565b9250817fffffffffffffffffffffffffffffffffffffffffffffffffffffffffffffffff048311821515161561520457615203614358565b5b828202905092915050565b7f52414e444f4d5f42475f434f4c4f520000000000000000000000000000000000600082015250565b6000615245600f83613f0b565b91506152508261520f565b600f82019050919050565b600061526682615238565b91506152728284613f16565b915081905092915050565b60006152898284613f16565b91508190509291505056fe4142434445464748494a4b4c4d4e4f505152535455565758595a6162636465666768696a6b6c6d6e6f707172737475767778797a303132333435363738392b2fa264697066735822122048a93a64dfaa9c706e7bde893a3abc9d4461f5ac6c55e3fafadfc89f8b5a643864736f6c63430008090033",
  "linkReferences": {},
  "deployedLinkReferences": {}
}